:020000042000DA
:1000000000000120910100207F03002081030020D7
:1000100083030020850300208703002000000000E8
:100020000000000000000000000000008903002024
:100030008B030020000000008D0300208F030020B0
:100040009103002093030020911D0020B11D00208A
:10005000990300209B0300209D0300209F030020A4
:10006000A1030020A30300201D0700203D0700205E
:10007000A9030020AB030020AD030020AF03002044
:10008000B1030020B3030020B5030020550D00206C
:10009000B9030020BB030020BD030020BF030020E4
:1000A000C1030020C3030020C50300201D1F002042
:1000B00011200020CB030020CD030020CF0300201F
:1000C000D1030020D3030020D5030020D703002054
:1000D000D9030020DB030020DD030020DF03002024
:1000E000E1030020E3030020E5030020E7030020F4
:1000F000E9030020EB030020ED030020EF030020C4
:10010000F1030020F3030020F5030020F703002093
:10011000F9030020FB030020FD030020FF03002063
:10012000010400200304002005040020070400202F
:10013000090400200B0400200D0400200F040020FF
:1001400011040020130400201504002017040020CF
:10015000190400201B0400201D0400201F0400209F
:10016000210400202304002025040020270400206F
:10017000290400202B0400202D0400202F0400203F
:1001800031040020330400200000000000000000C3
:100190004FF0000BDFF8BE020068DFF8B612096806
:1001A00001F0030100F01C00142801D14BF0020BF8
:1001B000002901D04BF0010BBBF1000F05D0A7487F
:1001C000A749DFF8722200F09FF8A64880470BF09D
:1001D000020ABAF1000F0CD0DFF86E02DFF86E12DF
:1001E00002680B680FB44FF000024FF0FF0302608B
:1001F0000B609D489D4A9E4B022808D1DFF83E12B5
:100200000A60DFF842120A60DFF836120B6001283C
:1002100008D1DFF82E120A60DFF82A120A60DFF830
:100220001E120B609348002809D193489349944AC1
:1002300000F032F893489449944A00F02DF894481D
:100240009449954A00F028F894489549DFF8E6214A
:1002500000F05AF8BBF1000F12D092489249DFF833
:10026000DA2100F051F80BF0020ABAF1000F07D0C2
:100270000FBC02600B6000BFAFF30080AFF30080E3
:10028000DFF828020FF2030E00474FF000004FF096
:100290000001DFF81CF2FEE72DE9F841884225D085
:1002A000B2EB010200D5FEE740EA010313F00303BD
:1002B00002D000F01DF819E04FF000039046121133
:1002C000F7D09A421CBFF0C8F0C103F10103F8D186
:1002D00008F00F08B8F1000F08D004780C7000F196
:1002E000010001F10101B8F10108F6D1BDE8F88182
:1002F00008B54FF0000303780B7000F1010001F125
:100300000101013AF7D108BD884237D000F0030659
:10031000002E14D04FF00405A5EB06044FF008079B
:1003200007FB06F8914669FA08F9002C07D080F817
:10033000009069FA07F900F10100013CF5E74FF080
:1003400000060F46091A88460911914614461546BB
:10035000B14206D018BFA0E8340206F10106B1424E
:10036000F8D108F00F08B8F1000F07D002704FEA7B
:10037000322200F10100B8F10108F4E77047FEE70E
:10038000FEE7FEE7FEE7FEE7FEE7FEE7FEE7FEE745
:10039000FEE7FEE7FEE7FEE7FEE7FEE7FEE7FEE735
:1003A000FEE7FEE7FEE7FEE7FEE7FEE7FEE7FEE725
:1003B000FEE7FEE7FEE7FEE7FEE7FEE7FEE7FEE715
:1003C000FEE7FEE7FEE7FEE7FEE7FEE7FEE7FEE705
:1003D000FEE7FEE7FEE7FEE7FEE7FEE7FEE7FEE7F5
:1003E000FEE7FEE7FEE7FEE7FEE7FEE7FEE7FEE7E5
:1003F000FEE7FEE7FEE7FEE7FEE7FEE7FEE7FEE7D5
:10040000FEE7FEE7FEE7FEE7FEE7FEE7FEE7FEE7C4
:10041000FEE7FEE7FEE7FEE7FEE7FEE7FEE7FEE7B4
:10042000FEE7FEE7FEE7FEE7FEE7FEE7FEE7FEE7A4
:10043000FEE7FEE7704700000000A2A2A2A2008033
:100440000340088003401080034030800340348024
:1004500003403880034018080240000000F00020EC
:1004600000000120ED22002000000000000000003C
:10047000010000000000000000000020000000203B
:1004800090010020C0040020C0040020A87A0020B1
:10049000B07A0020B07A00205083002050830020E2
:1004A000808500208085002000F00020C9330020D6
:1004B00031260020000000000000000000000000C5
:1004C00010B5054C237833B9044B13B10448AFF38E
:1004D00000800123237010BD508300200000000025
:1004E000787A0020084B10B51BB108480849AFF3D3
:1004F00000800848036803B910BD074B002BFBD0F0
:10050000BDE81040184700BF00000000787A0020C6
:1005100054830020B07A00200000000080B483B033
:1005200000AF0346FB71094997F907305B09FA7977
:1005300002F01F02012000FA02F2603341F823208A
:100540000C37BD465DF8047B704700BF00E100E05A
:1005500080B483B000AF78600B46FB707B6803F01B
:1005600070427B68C3F313035B011344FA78920073
:10057000134403F100731A46012313600C37BD4680
:100580005DF8047B704700BF80B483B000AF786033
:100590000B46FB707B6803F070427B68C3F3130368
:1005A0005B011344FA789200134403F100731A4676
:1005B000002313600C37BD465DF8047B704700BF15
:1005C00080B483B000AF78600B46FB707B6803F0AB
:1005D00070427B68C3F313035B011344FA78920003
:1005E000134403F100731B68DBB218460C37BD4699
:1005F0005DF8047B704700BF80B584B000AFF86041
:10060000B9601346FB71FB68144A934204D0FB683F
:10061000134A934200D000BEFB79F868B9681A46C5
:1006200000F040F9FB681B68303318460321FFF7E0
:10063000ABFFFB681B68343318460221FFF7A4FFA9
:10064000FB681B68383318460021FFF79DFFFB68E5
:10065000044A5A621037BD4680BD00BF3084002076
:10066000F08300206D0C002080B487B000AF78606C
:10067000396000237B617B68264A934204D07B6803
:10068000254A934200D000BE3B68002B00D100BE3B
:100690007B68204A934203D07B681F4A934233D140
:1006A0003B68002B30D03A687B6913441B78FB739E
:1006B00027E07B681B681B7DBB737B685A7BBB7B19
:1006C0001343DAB27B685A73BB7B03F02003002B21
:1006D000EFD000233B610EE07B681B68FA7B1A7049
:1006E0003B6901333B617B6901337B613A687B691C
:1006F00013441B78FB73FB7B002B02D03B690F2B51
:10070000EAD9FB7B002BD4D11C37BD465DF8047BB6
:10071000704700BF30840020F0830020684620F03E
:1007200007018D4689B500AF034800F0A7F9BD4623
:10073000BDE889408546704730840020684620F037
:1007400007018D4689B500AF034800F097F9BD4613
:10075000BDE8894085467047F083002080B588B0A9
:1007600000AF786039607B684A4A934204D07B6866
:10077000494A934200D000BE7B68464A934204D067
:100780007B68454A934240F082807B683A689A6071
:1007900001F0BCFD7B683F4A934203D13F4B1B688D
:1007A000FB6102E03E4B1B68FB61FB69DA003B68C2
:1007B000B2FBF3F3BB61BB695B087B617B699B099F
:1007C0003B613B699B017A69D31AFB603B69DB01A2
:1007D000BA69D21AFB685B00D31AFA681344FB604B
:1007E0003B69B3F5803F00D300BE3B69B3F5803F62
:1007F0004DD23B69012B2AD97B681B680C33184604
:100800000721FFF7A5FE7B681B683A69120AD2B27E
:100810001A717B681B683A69D2B21A707B681B68D0
:100820000C3318460721FFF7AFFE7B681B68303397
:1008300018460721FFF78CFEFB68FF2B00D900BE8E
:100840007B681B68FA68D2B283F83C201FE07B68A3
:100850001B680C3318460721FFF77AFE7B681B687C
:100860003A69120AD2B21A717B681B683A69D2B22D
:100870001A707B681B680C3318460721FFF784FE4B
:100880007B681B68303318460721FFF77DFE203751
:10089000BD4680BD30840020F0830020B87A00205F
:1008A000BC7A002080B584B000AFF860B960134610
:1008B000FB71FB686D4A934204D0FB686C4A93421B
:1008C00000D000BEFB68694A934216D1FB684FF026
:1008D00080421A60FB680A221A71664A654B9B6C5B
:1008E00043F0800393640A20FFF718FE614A614BCE
:1008F0009B6C23F08003936414E0FB685E4A1A60EB
:10090000FB680B221A715B4A5A4B9B6C43F4807351
:1009100093640B20FFF702FE564A564B9B6C23F460
:1009200080739364FB681B6800221A71FB681B6864
:1009300000221A72FB681B68083318460121FFF772
:1009400007FEFB681B68083318460221FFF700FE0C
:10095000FB681B68083318460021FFF7F9FDFB68A8
:100960001B68103318460421FFF70EFEFB681B6856
:10097000103318460521FFF707FEFB681B68343368
:1009800018460121FFF700FEFB681B683433184648
:100990000021FFF7F9FDFB681B6838331846012179
:1009A000FFF7F2FDFB681B68303318460521FFF79F
:1009B000EBFDFB681B68303318460621FFF7E4FDAA
:1009C000FB681B68303318460721FFF7DDFDFB6825
:1009D0001B68383318460321FFF7D6FDFB681B68F8
:1009E000002283F84420FB681B68002283F848201B
:1009F000FB681B68002283F84C20F868B968FFF791
:100A0000ADFEFB681B68FA791A73FB68BA689A60D6
:100A1000FB68FA791A73FB6800225A61FB680022AE
:100A20001A61FB6800229A61FB6800221A62FB6867
:100A300000225A62FB680022DA61FB6800229A6297
:100A4000FB680022DA62FB6800221A63FB6800225E
:100A50005A63FB6800229A63FB680022DA63FB6832
:100A600000225A731037BD4680BD00BF308400207D
:100A7000F0830020008003400000014080B584B076
:100A800000AF78607B68774A934204D07B68764AEF
:100A9000934200D000BE7B68724A934204D07B68C8
:100AA000714A934240F0DB807B681B681B7ADBB2A3
:100AB00003F00F03FB73FB7B0C2B00F2CE8001A233
:100AC00052F823F0F90A00205B0C0020170B0020DD
:100AD000710B0020350B00205B0C0020530B002015
:100AE0005B0C00205B0C00205B0C00205B0C0020EA
:100AF0005B0C0020350B00207B689B6A002B00D12B
:100B000000BE7B689B6A002B04D07B689B6A786878
:100B10009847A4E0A3E07B685B6A002B00D100BE8D
:100B20007B685B6A002B04D07B685B6A78689847B7
:100B300095E094E07B681B6A002B00D100BE7B68C7
:100B40001B6A002B04D07B681B6A7868984786E094
:100B500085E07B68DB69002B00D100BE7B68DB6928
:100B6000002B04D07B68DB697868984777E076E0F3
:100B70007B681B68283318460021FFF721FD0346D8
:100B8000002B0CD07B68DB6A002B00D100BE7B6899
:100B9000DB6A002B03D07B68DB6A786898477B6848
:100BA0001B68283318460121FFF70AFD0346002B76
:100BB0000CD07B681B6B002B00D100BE7B681B6BCD
:100BC000002B03D07B681B6B786898477B681B6899
:100BD000283318460221FFF7F3FC0346002B0CD004
:100BE0007B685B6B002B00D100BE7B685B6B002BCE
:100BF00003D07B685B6B786898477B681B682833F9
:100C000018460321FFF7DCFC0346002B0CD07B6861
:100C10009B6B002B00D100BE7B689B6B002B03D02D
:100C20007B689B6B786898477B681B6828331846FD
:100C30000421FFF7C5FC0346002B0DD07B68DB6B5E
:100C4000002B00D100BE7B68DB6B002B04D07B68DF
:100C5000DB6B7868984702E001E000BE00BF103708
:100C6000BD4680BD30840020F083002080B586B072
:100C700000AF78607B68354A934204D07B68344A81
:100C8000934200D000BE7B681B69002B00D100BEE0
:100C90007B685B69002B00D100BE7B682B4A9342C6
:100CA00003D07B682A4A93424CD17B681B69002B96
:100CB00048D07B685B69002B44D07B681B681B7D38
:100CC000FB737B685A7BFB7B1343DAB27B685A73F6
:100CD000FB7B03F02003002B24D010233B617B68B7
:100CE0005A697B689B69D31ABB60BB680F2B01D81C
:100CF000BB683B6100237B6110E07B681B687A68FE
:100D000011697A6892690A4412781A707B689B6943
:100D10005A1C7B689A617B6901337B617A693B6904
:100D20009A42EAD37B689A697B685B699A4209D1E7
:100D30007B6800225A617B681B68043318460121D6
:100D4000FFF722FC1837BD4680BD00BF308400206D
:100D5000F083002080B582B000AF0F4B5B68FB7161
:100D60000D4B9B68DAB2FB791340FB71FB7903F002
:100D70000203BB71BB79002B01D000F0E7F8FB79CF
:100D800003F001037B717B79002B01D000F006F8A2
:100D90000837BD4680BD00BF0060014080B584B00B
:100DA00000AF634B1B78022B3FD0052B6BD0012B80
:100DB00040F0AD805F4B1B889BB2002B30D05E4B68
:100DC0001A685C4B1B889BB21046194600F006FA65
:100DD000F860584B1B889BB21A46FB689A420FD9A1
:100DE000544B1B889AB2FB689BB2D31A9AB2514BF0
:100DF0001A80514B1A68FB6813444F4A13600EE087
:100E00004C4B00221A804D4B1B68002B03D0484BE3
:100E100002221A7003E0464B03221A7004E003E03A
:100E200000BE00F0B5F97FE07EE0444B1B68002B6C
:100E300024D0434B1A68414B1B681046194600F0FA
:100E4000CDF9B8603D4B1B68BA689A420CD23B4B57
:100E50001A68BB68D31A394A1360394B1A68BB68E1
:100E60001344374A13600DE0364A364B9B6823F033
:100E7000010393602E4B03221A7003E000BE00F0C2
:100E800087F951E050E02D4B1B68002B1BD12E4BF6
:100E90001B68002B14D02C4B1B682948984702462E
:100EA000264B1A60254B1B68002B0CD1254A254B7D
:100EB0009B6823F0010393601D4B03221A7002E02C
:100EC00000BE00F065F91D4B1B68002B09D11D4ABF
:100ED0001C4B9B6823F001039360154B03221A708F
:100EE00022E0174B1A68154B1B681046194600F094
:100EF00075F97860114B1A687B68D31A0F4A136032
:100F00000F4B1A687B6813440D4A13600CE00D4ABE
:100F10000C4B9B6823F001039360002000F018F94C
:100F2000034B00221A7000BF1037BD4680BD00BFC2
:100F30009183002074830020708300207C83002034
:100F400078830020006001408C83002080B584B04D
:100F500000AF794B1B69FB81FB8923F4FF4323F02E
:100F60007F03BB81FB89FB72744B1B78052B00F25E
:100F7000D88001A252F823F0910F00200D1100201B
:100F80000D110020E90F002037100020E110002093
:100F9000BB89002B27D0FB7AF12B06D0FB7ABB72E2
:100FA000BB7A184600F04CF91DE0654B00221A8010
:100FB000644B1B68624A128892B21344FA7A1A7020
:100FC0005F4B1B889BB201339AB25D4B1A805D4B1D
:100FD0001B685B4A128892B2134400221A70574B66
:100FE00004221A70A4E0A3E0BB89002B22D0FB7A74
:100FF0007B72554B1B78DBB27A7A9A4215D1504BF3
:1010000000221A804F4B1B684D4A128892B213443B
:101010007A7A1A704A4B1B889BB201339AB2484BBA
:101020001A80464B04221A7004E07B7A184600F0BE
:1010300007F97DE07CE0BB89002B06D0FB7A3B7290
:101040003B7A184600F0FCF849E03E4B1A683C4BEE
:101050001B889BB2013B13441B78F12B16D1394BF3
:101060001B68374A128892B21344FA7A1A70354BC9
:101070001A68334B1B889BB2013B13441B781846FC
:1010800000F0DEF82D4B00221A7028E02C4B1B8854
:101090009AB22E4B1B889A4210D2FB7AFB71294BD5
:1010A0001B68274A128892B21344FA791A70244BAB
:1010B0001B889BB201339AB2214B1A80204B1B88AC
:1010C0009AB2224B1B889A4209D11D4B1B889BB2B6
:1010D000184600F03DF8194B00221A7028E027E06E
:1010E000BB89002B0BD1174B1B680133FA7A1A709E
:1010F000022000F02DF8114B00221A7018E0FB7A44
:10110000BB71BB79184600F09BF811E0BB89002B3E
:1011100006D0FB7A7B717B79184600F091F807E0E6
:1011200006E0002000F014F8044B00221A7000BF03
:101130001037BD4680BD00BF006001409183002094
:1011400086830020808300206C830020848300201D
:1011500080B582B000AF0346FB800A4B1B68002BB2
:101160000DD0084B1B68084A1168FA8808461146DA
:101170009847044B00221A60044B00221A7008376B
:10118000BD4680BD8883002080830020908300209E
:1011900080B582B000AF0E4B1B78DBB2002B13D0B2
:1011A0000C4B1B889BB21846FFF7D2FF0A4A0A4B2A
:1011B0001B6843F001031360074B1B6803F0010336
:1011C0007B607B68002BF7D10837BD4680BD00BF30
:1011D00090830020868300200060014080B485B0A9
:1011E00000AF78603960154A144B1B6823F0040384
:1011F00013600023FB60114B5B6803F00103BB60CD
:101200000DE00E497A68FB6813441B780B61FB689C
:101210000133FB60094B5B6803F00103BB60BB68F3
:10122000002B03D0FA683B689A42EAD3FB68184661
:101230001437BD465DF8047B704700BF0060014075
:1012400080B582B000AF0346FB71064B1B68002BD4
:1012500004D0044B1B68FA79104698470837BD46FE
:1012600080BD00BF9483002080B483B000AF0346EC
:10127000FB71084997F907305B09FA7902F01F0200
:10128000012000FA02F241F823200C37BD465DF838
:10129000047B704700E100E080B483B000AF0346F8
:1012A000FB71094997F907305B09FA7902F01F02CF
:1012B000012000FA02F2203341F823200C37BD460A
:1012C0005DF8047B704700BF00E100E080B483B0AC
:1012D00000AF0346FB71094997F907305B09FA79BA
:1012E00002F01F02012000FA02F2603341F82320CD
:1012F0000C37BD465DF8047B704700BF00E100E09D
:1013000080B584B000AF78607B68304A934204D0E7
:101310007B682F4A934200D000BE7B681B795BB28A
:101320001846FFF7B9FF78680021842202F0EAF836
:101330007B6801225A620023FB810AE0FB897A68FC
:101340000633DB0013444FF0FF325A60FB89013350
:10135000FB81FB89072BF1D97B681C4A934215D18D
:101360007B681C4A1A607B6802221A711A4A1A4B5F
:101370009B6C43F4007393640220FFF7A7FF164AA7
:10138000154B9B6C23F40073936414E07B68134A41
:101390001A607B6803221A710F4A0F4B9B6C43F44F
:1013A000806393640320FFF791FF0B4A0A4B9B6C09
:1013B00023F4806393647B681B687A681268126800
:1013C00022F000421A601037BD4680BDF484002030
:1013D0007084002000100040008003400010014095
:1013E00080B58AB000AF78607B681B681B687B6241
:1013F0007B681B689B693B627B681B685B68FB6161
:101400007B681B689B6ABB617B681B681B6B7B618D
:101410007B681B685B6B3B617B681B68DB69FB60FF
:101420007B68344A93421DD17B68334A1A607B68DB
:1014300002221A71314A314B9B6C43F4007393645E
:101440000220FFF743FF2D4A2C4B9B6C23F40073C3
:1014500093647B681B687A681268126822F0004205
:101460001A601CE07B68264A1A607B6803221A71A6
:10147000224A224B9B6C43F4806393640320FFF762
:1014800025FF1E4A1D4B9B6C23F4806393647B688D
:101490001B687A681268126822F000421A607B6A40
:1014A00023F001037B627B681B687A6A1A607B68A1
:1014B0001B683A6A9A617B681B68FA695A607B68A4
:1014C0001B687A681268126842F001021A607B6831
:1014D0001B68BA699A627B681B687A691A637B68C1
:1014E0001B683A695A637B681B68FA68DA612837B7
:1014F000BD4680BDF4840020001000400080034001
:101500000010014080B586B000AFF8607A603B60A3
:101510000B46FB72FB68444A934204D0FB68434A83
:10152000934200D000BEFB7A072B00D900BE97F88B
:101530002030202B00D900BE3B68012B00D800BE14
:101540003B68B3F5007F00D900BE3B6803F00103A0
:10155000002B00D000BEFB681B795BB21846FFF77A
:101560009BFEFB68002283F88020FB681B68FA68FA
:101570001268126822F001021A60FB681B68FA68A0
:101580001268126842F002021A60FB681B68FA686F
:101590001268126842F001021A60FB7A072B3AD8EF
:1015A0007B68002B0BD07B68B3F1007F07D07B6892
:1015B000B3F1807F03D07B68B3F1407F0BD1FB7A1E
:1015C0007A6842F0505242F48172F9680633DB00C7
:1015D0000B445A600AE0FB7A7A6842F0405242F4C7
:1015E0008172F9680633DB000B445A60FB7AFA68B3
:1015F0000633DB00134497F820201A723B685B081F
:10160000013B7B61FB7A7A69D1B2FA680633DB0071
:1016100013440A465A72FB681B795BB21846FFF7FF
:1016200023FE1837BD4680BDF4840020708400205E
:1016300080B584B000AF78600B46FB707B68354A9C
:10164000934204D07B68344A934200D000BE7B684A
:101650001B681B6803F00203002B00D100BEFB785F
:101660007A680633DB0013445B68B3F1FF3F00D1B7
:1016700000BE7B681B795BB21846FFF70DFE7B68E6
:101680001B689B6803F00403FB60FB68002B02D01F
:101690007868FFF7A5FE7B681B687A681268126895
:1016A00022F001021A607B681A68FB7879680633B9
:1016B000DB000B445B6813607B681A68FB78796811
:1016C0000633DB000B445B7A93617B681A68FB7816
:1016D00079680633DB000B441B7A53607B681B6818
:1016E0007A681268126842F001021A607B681B680F
:1016F0007A681268D169FA78012000FA02F20A4386
:10170000DA617B681B795BB21846FFF7ADFD1037D5
:10171000BD4680BDF48400207084002080B584B074
:1017200000AF78600B46FB707B681B4A934204D085
:101730007B681A4A934200D000BE7B681B681B6816
:1017400003F00203002B00D100BE7B681B795BB263
:101750001846FFF7A1FD7B681B689B6803F0040334
:10176000FB60FB68002B02D07868FFF739FE7B68CE
:101770001B687A681268D169FA78012000FA02F2CF
:10178000D2430A40DA617B681B795BB21846FFF7E7
:101790006BFD1037BD4680BDF484002070840020AE
:1017A00080B58EB000AFF860B9603B601346FB8037
:1017B0000023FB8600237B85FB68734A934204D099
:1017C000FB68724A934200D000BEFB681B681B682E
:1017D00003F00203002B00D100BEFA88B7F84030B6
:1017E00013447B847B8C002B02D10123FB6201E03C
:1017F0007B8CFB62FB681B68FA681268D26A42F055
:101800000C02DA62FB681B689B6803F00403FB614F
:10181000FB69002B02D0F868FFF7E2FDFB681B684C
:10182000FA681268126822F001021A60FB681968EF
:10183000FB681B681B6823F47F0222F47F42FB6A6B
:101840001B0223F07F4323F0FF0313430B60FB686D
:101850001B6808225A60FB681B68FA6812681268E5
:1018600042F001021A60FB681B689B6803F04003AA
:101870007B6209E0FB681B681B697B61FB681B6876
:101880009B6803F040037B627B6A002BF2D000234D
:10189000BB8600237B86BA8EFB889A420DD2FB68FA
:1018A0001B68BA8EB9680A4412785A61BB8E01333C
:1018B000BB867B8D01337B850DE0BA8E7B8C9A4293
:1018C00009D2FB681B6800225A61BB8E0133BB86BC
:1018D0007B8D01337B8550E0FB681B689B6803F0C0
:1018E00040037B627B6A002B1BD1FB681B681B6972
:1018F0007B61FA8EFB889A420DD37A8EB7F840301E
:101900009A4205D27B8E3A6813447A69D2B21A7031
:101910007B8E01337B86FB8E0133FB867B8D013B07
:101920007B85FB681B689B6803F48073BB61BB69A4
:10193000002B22D17B8D032B1FD8BA8EFB889A42B5
:101940000DD2FB681B68BA8EB9680A4412785A61D6
:10195000BB8E0133BB867B8D01337B850DE0BA8E58
:101960007B8C9A4209D2FB681B6800225A61BB8EAD
:101970000133BB867B8D01337B85FA8E7B8C9A424B
:10198000AAD33837BD4680BDF4840020708400207F
:1019900080B485B000AF78600023FB600DE07B6809
:1019A0001B687A6891687A6812690A4412785A61E9
:1019B0007B681B695A1C7B681A617B681B689B6883
:1019C00003F48073002B05D17B681A697B68DB68A0
:1019D0009A42E4D37B681A697B68DB689A421BD31E
:1019E0000DE07B681B687A6851697A68D2690A449D
:1019F00012785A617B68DB695A1C7B68DA617B6804
:101A00001B689B6803F48073002B05D17B68DA693F
:101A10007B689B699A42E4D37B685B6A002B1DD08C
:101A20007B681A697B68DB689A4217D37B68DA693E
:101A30007B689B699A4211D306E07B681B68002291
:101A40005A61FB680133FB607B681B689B6803F489
:101A50008073002B02D1FB681F2BEED91437BD46D3
:101A60005DF8047B704700BF80B584B000AF78603C
:101A70007B6893F88030022B15D10CE07B681B68E3
:101A80001B69FB607B685B6F002B04D07B685B6F1E
:101A9000FA68104698477B681B689B6803F0400310
:101AA000002BEBD030E07B6893F88030012B1FD106
:101AB00016E07B681B681B69FB607B681A6B7B68A0
:101AC000DB6A9A4207D27B689A6A7B681B6B134475
:101AD000FA68D2B21A707B681B6B5A1C7B681A6357
:101AE0007B681B689B6803F04003002BE1D00BE090
:101AF00003E07B681B681B69FB607B681B689B6855
:101B000003F04003002BF4D01037BD4680BD00BF6A
:101B100080B586B000AF78607B681B6820337B613E
:101B20007B686C4A934204D07B686B4A934200D036
:101B300000BE7B691B6803F00203002B4FD07B685B
:101B400093F88030022B15D10CE07B681B681B6971
:101B5000FB607B685B6F002B04D07B685B6FFA686F
:101B6000104698477B681B689B6803F04003002B76
:101B7000EBD030E07B6893F88030012B1FD116E06A
:101B80007B681B681B69FB607B681A6B7B68DB6A80
:101B90009A4207D27B689A6A7B681B6B1344FA6887
:101BA000D2B21A707B681B6B5A1C7B681A637B6805
:101BB0001B689B6803F04003002BE1D00BE003E0BF
:101BC0007B681B681B69FB607B681B689B6803F074
:101BD0004003002BF4D07B681B680222DA607B692B
:101BE0001B6803F00103002B11D07B6893F8803051
:101BF000022B05D17B681B687A68926F5A6102E0FC
:101C00007868FFF7C5FE7B681B680122DA607B6994
:101C10001B6803F01003002B21D07868FFF724FF26
:101C20007B681B6A002B0BD07B681B6A7A68916A01
:101C30007A68126B0846114698477868FFF7A8FE45
:101C40007B6801225A627B681B687A681268926A14
:101C500022F010029A627B681B681022DA607B69AE
:101C60001B6803F00403002B0ED07B681B687A68A6
:101C70001268D26A42F00402DA627868FFF7B0FBB9
:101C80007B681B680422DA607B691B6803F0080329
:101C9000002B32D07B681B687A681268D26A42F0E7
:101CA0000802DA627B6893F88030022B16D17B68D9
:101CB0001A687B681B681B6823F47F0323F47F4347
:101CC00043F4807313607B681B687A68926F5A6173
:101CD0000FE000BFF4840020708400207B6893F83C
:101CE0008030012B05D17B6800221A617868FFF7EC
:101CF0004FFE7B681B680822DA607B691B6803F073
:101D00002003002B41D07868FFF7AEFE7B681B6B89
:101D10003B617B681B6A002B17D07B6800225A62EC
:101D20007B6800225A617B6800229A617B680022EE
:101D3000DA617B681B681022DA607B681B687A684E
:101D40001268926A42F010029A627B6800221A615D
:101D50007B681B687A681268D26A42F00C02DA6209
:101D60007868FFF715FE7B6800221A637B68DB6FDB
:101D7000002B06D07B68DB6F7A68926A104639695F
:101D800098477B681B682022DA601837BD4680BD03
:101D9000684620F007018D4689B500AF0348FFF77C
:101DA000B7FEBD46BDE8894085467047F4840020F3
:101DB000684620F007018D4689B500AF0348FFF75C
:101DC000A7FEBD46BDE88940854670477084002067
:101DD00090B484B000AFF860B9607A60FB704B4893
:101DE0004B4B1A68F97813469B001344DB010344FC
:101DF00003F5E07359604749454B1A6813469B0049
:101E000013449B000B44FA685A604249404B1A68DD
:101E100013469B0013449B000B44BA689A603D48EC
:101E20003B4B19683B4C3A4B1A6813469B001344D2
:101E30009B00234408335B681A0C12040B469B007A
:101E40000B449B00034408335A607B68B3F5803F22
:101E50000FD97B68A3F580332F4A1361BB6803F564
:101E600080332D4AD360FB6803F580332A4A9360A0
:101E700019E02848264B1A68264C254B19680B4652
:101E80009B000B449B00234408335B68796889B24C
:101E9000194313469B0013449B00034408335960C5
:101EA0001D4B00221A611B48194B1A68194C184B1C
:101EB00019680B469B000B449B00234408335B6866
:101EC00043F4E00113469B0013449B000344083392
:101ED00059600E490E4B1A6813469B001344DB01F0
:101EE0000B4403F5E07301221A600849084B1A6895
:101EF00013469B001344DB010B4403F5E4730022FB
:101F00005A601037BD4690BC704700BF00002842A1
:101F1000B08300200040014098830020684620F0F4
:101F200007018D4691B500AF344A354B1B6803F568
:101F30002873012142F823103248314B1A68314C82
:101F40002F4B19680B469B000B449B00234408331E
:101F50005B6823F4E00113469B0013449B00034499
:101F600008335960264B1B680133254A1360244B04
:101F70001B68042B02D1224B00221A60224B1B69E2
:101F8000002B17D0214B1B68042B03D11F4B0022C1
:101F90001A6004E01D4B1B6801331C4A13601A4B86
:101FA0009868194BD968184B1A69174B1B7DFFF7B6
:101FB0000FFF1EE01349124B1A6813469B0013448F
:101FC0009B000B4408335B6803F4E003002B10D143
:101FD0000B4B00221A600D4B00221A600A4B0122A3
:101FE0001A70094B5B68002B03D0074B5B6801201C
:101FF0009847BD46BDE8914085467047000028429D
:10200000B48300200040014098830020B08300206A
:10201000684620F007018D4681B583B000AF384B8C
:102020001B683B603B6803F470633B603B68002BBC
:102030002FD03449344B1A6813469B001344DB01FC
:102040000B4403F502731B68002B0AD02F4B0222AE
:102050001A702E4B5B68002B03D02C4B5B68022060
:1020600098472849284B1A6813469B001344DB0104
:102070000B4403F502735B68002B0AD0234B032249
:102080001A70224B5B68002B03D0204B5B68032047
:1020900098471B4B1B683B603B6803F470433B60F5
:1020A0003B68002B0AD0194B04221A70174B5B684F
:1020B000002B03D0154B5B680420984700237B60FE
:1020C00014E010497A6813469B001344DB010B446B
:1020D00003F5E47301221A600A4A7B6803F528734A
:1020E000012142F823107B6801337B607B68032B5E
:1020F000E7D90C37BD46BDE881408546704700BF33
:102100000040014000002842B48300209883002052
:1021100080B483B000AF0346FB71094997F90730DB
:102120005B09FA7902F01F02012000FA02F2203363
:1021300041F823200C37BD465DF8047B704700BF93
:1021400000E100E080B483B000AF0346FB710949B1
:1021500097F907305B09FA7902F01F02012000FAB3
:1021600002F2603341F823200C37BD465DF8047B52
:10217000704700BF00E100E080B582B000AF1A4AAE
:10218000194B9B6C43F480139364174A164B9B6C5A
:1021900043F0F073936400237B6012E0134A7B6882
:1021A00013441B785BB21846FFF7B2FF0F4A7B68F7
:1021B00013441B785BB21846FFF7C4FF7B680133FA
:1021C0007B607B681F2BE9D9074A074B9B6C23F088
:1021D000F0739364044A044B9B6C23F48013936460
:1021E0000837BD4680BD00BF00800340C477002093
:1021F00080B485B000AF03463960FB71FB79FB60AA
:10220000FB681F2B00D900BEFB681F2B05D8054AB1
:10221000FB6852F823303A681A601437BD465DF8FF
:10222000047B70474477002080B483B000AF7860AF
:10223000FEE700BF80B485B000AFF860B9607A6097
:102240003B60002318461437BD465DF8047B704799
:1022500080B586B000AF78601F4B1B68002B02D1A1
:102260001D4B1E4A1A601C4B1B687B61EFF30883F1
:102270003B61194B1A683B699A420FD2164B1A6898
:102280007B681A443B699A421AD900200121144AFA
:102290001923FFF7CFFF0120FFF7C6FF114BFB60AB
:1022A0000D4B1A687B681A44FB689A4208D90020D3
:1022B00001210D4A1923FFF7BDFF0120FFF7B4FFED
:1022C000054B1A687B681344034A13607B69184600
:1022D0001837BD4680BD00BFB88300208085002030
:1022E000E477002000F000200078002080B500AFE7
:1022F00000F0F6F8044A044B5B6943F40073536141
:10230000FEF798F880BD00BF00ED00E080B588B012
:1023100000AF2F4BD3F8983003F08063FB61FB696B
:10232000002B4BD12A4BD3F8983003F48053BB6178
:10233000BB69002B15D1274B274A1A60274B264A29
:102340001A60274B244A1A60264B274A1A60274BEB
:10235000214A1A60264B204A1A60264B1E4A1A60F0
:102360002BE0254A3B1D1068516803C3184BD3F876
:102370009C309B0903F007037B613A1D7B69134482
:102380001B78FB74FB7C012B0AD0022B0DD0002B99
:102390000FD100F035F8F860F86800F04FF80CE065
:1023A0004FF4004000F04AF807E0144800F046F807
:1023B00003E0124800F042F800BF05E000F020F80A
:1023C000F860F86800F03AF82037BD4680BD00BFDD
:1023D00000800340B47A0020002D3101B87A00203B
:1023E000BC7A0020C07A0020404B4C00C47A002008
:1023F000C87A0020CC7A00201478002040420F00D8
:1024000080B483B000AF0A4BD3F8503103F004031B
:102410003B603B68002B02D1064B7B6001E0064B22
:102420007B607B6818460C37BD465DF8047B7047BF
:102430000080034040787D0180F0FA0280B483B0D0
:1024400000AF78600C4A7B6813600C4A7B681360AD
:102450000B4A7B6813600B4B0B4A1A600B4A7B6874
:1024600013600B4A7B6813600A4A7B6813600C3761
:10247000BD465DF8047B7047B47A0020B87A00202E
:10248000BC7A0020C07A0020404B4C00C47A002067
:10249000C87A0020CC7A002080B483B000AF0E4B05
:1024A000D3F84C313B603B684FF60202934203D0B5
:1024B0000A4A934203D005E001237B6005E0022332
:1024C0007B6002E000237B6000BF7B6818460C370E
:1024D000BD465DF8047B70470080034002F80100B0
:1024E00080B582B000AFFFF7D7FF78607B68012B23
:1024F00000D002E000F004F800BF0837BD4680BD00
:1025000080B400AF094A094BD3F8983043F4807384
:10251000C2F89830054A054BD3F8983023F0806311
:10252000C2F89830BD465DF8047B704700800340D8
:1025300080B483B000AF7860044A7B68C2F888300A
:102540000C37BD465DF8047B704700BF003001408A
:1025500080B400AF034BD3F888301846BD465DF811
:10256000047B70470030014080B586B000AFF86052
:10257000B9607A6000237B6111E0F86801F036F8F9
:102580000246FB6899187B69BA6813441B780846B1
:102590000E491A4601F004F87B6901337B617A69C0
:1025A0007B689A42E9DBF86801F020F80246FB6894
:1025B0001344074A1188927819809A70054B18467F
:1025C000F968FEF751F81837BD4680BD1C78002029
:1025D00024780020F083002080B582B000AF002373
:1025E0007B607868FFF7A4FF0837BD4680BD00BF59
:1025F00080B582B000AFFFF7ABFF78607B6843F037
:1026000008037B607868FFF793FF0837BD4680BDFD
:1026100080B582B000AFFFF79BFF78607B6843F026
:1026200001037B607868FFF783FF0837BD4680BDF4
:10263000B0B5ADF5167D02AF0023C7F848320023D0
:1026400087F84732002387F846320023C7F8403224
:1026500007F59A731A464FF48073104600211A4604
:1026600000F050FF5C4B0022DA665C4B18464FF4DA
:1026700061410322FDF7C0FF584B18465849FDF74A
:10268000F3FF5848FEF73CFE08230093554800210D
:102690004FF040728023FEF735FF5348FEF730FEBF
:1026A00008230093504800214FF000724FF48073CC
:1026B000FEF728FFFFF760FD00200521FFF798FDDA
:1026C00001200521FFF794FD02200521FFF790FD71
:1026D00003200521FFF78CFD07F598739F221A70E0
:1026E00007F5927300221A60043300221A60043343
:1026F00000221A700133FFF76FFF07F5987207F594
:102700009274092300933748114601222346FFF7AC
:1027100047F8FFF76DFF07F59A73344A07CA83E855
:10272000070007F59A7207F59273104619460922B9
:10273000FFF71AFF07F5907305221A7007F58E73DD
:102740002B491A460B461B88138007F58C73FF2212
:102750001A7007F58A7300221A70FFF73DFF07F51C
:10276000907207F58C74012300931E4811460122D4
:102770002346FFF715F8FFF73BFF07F59A731D4A4D
:102780001C4615460FCD0FC495E8070003C42280F0
:102790000234130C237007F59A7207F58C731046F8
:1027A00019460122FFF7E0FE07F5887306221A702A
:1027B00007F18C0302221A7007F18C0300225A7071
:1027C00007F18C0300229A7007F18C030022DA7063
:1027D0000423C7F84C3220E000800340F08300203F
:1027E0002C780020F4840020708400204C78002095
:1027F000EC78002058780020D7F84C32DBB2013357
:10280000D9B207F18C02D7F84C3213440A461A7039
:10281000D7F84C320133C7F84C32D7F84C32832BFF
:10282000EADDFFF7D9FE07F5887207F58A74002301
:102830000093AD48114601222346FEF7B1FFFFF792
:10284000D7FEFFF7C9FE07F5907207F58C740123D8
:102850000093A548114601222346FEF7A1FFFFF78A
:10286000C7FE07F59A73A14A1C4615460FCD0FC443
:1028700095E80F0007C4238007F59A7207F58C735B
:10288000104619460122FFF76FFEFFF7A5FE07F17C
:102890008C0207F58A740023009393481146842222
:1028A0002346FEF77DFFFFF7A3FE07F108031A4654
:1028B0008023104600211A4600F024FE07F1880309
:1028C00003221A7007F1880300225A7007F1880367
:1028D00000229A7007F188030022DA70FFF77CFE6D
:1028E00007F1880207F10804802300937E4811460F
:1028F00004222346FEF754FFFFF77AFE07F59A738A
:102900007B4A1C4615460FCD0FC495E80300206096
:102910000434218002340B0C237007F59A7207F1FE
:102920000803104619468022FFF71EFEFFF770FECF
:1029300000F0F2F83B1D00221A606E480021FEF7FD
:1029400077FE3C1D042300936A48002100222346A1
:10295000FEF726FF67480021FEF7E0FE07F59A73B1
:10296000654A1C4615460FCD0FC42B681A462280B7
:1029700002341B0C237007F59A723B1D1046194652
:102980000422FFF7F1FD3B1DDB78184600F02CFA1E
:1029900004460D463B1D9B78184600F025FA02467A
:1029A0000B46104619464FF00002544B00F082FAD5
:1029B00002460B462046294600F0CAF802460B465E
:1029C00014461D463B1D5B78184600F00DFA024682
:1029D0000B46104619464FF00002494B00F06AFAC8
:1029E00002460B462046294600F0B2F802460B4646
:1029F00014461D463B1D1B78184600F0F5F90246AB
:102A00000B46104619464FF000023E4B00F052FABA
:102A100002460B462046294600F09AF802460B462D
:102A20001046194600F058FC0346C7F83C3207F53B
:102A30009A7318463449D7F83C2200F0B1FD334A66
:102A400007F59A7310461946FDF70EFE4CF2503307
:102A5000C7F83832D7F8380200F0C6F902460B46FC
:102A6000104619461EA3D3E9002300F023FA0246BC
:102A70000B4614461D46D7F83C0200F0B5F9024655
:102A80000B462046294600F03FFB02460B46104607
:102A900019464FF000021E4B00F00CFA02460B469E
:102AA0001046194600F040FC0346C7F83432D7F808
:102AB000340200F0ABF904460D4607F59A73184648
:102AC000144922462B4600F06BFD104A07F59A7315
:102AD00010461946FDF7C8FD2AE700BFAFF3008096
:102AE0000000000084D79741F4840020747800200F
:102AF0009478002070840020AC78002000007040A2
:102B00000000F04000007041C0780020F0830020F9
:102B100000002040D478002080B483B000AF084B80
:102B20001B681B0A7B6002E07B68013B7B607B6863
:102B3000002BF9D10C37BD465DF8047B704700BF10
:102B4000B47A002081F0004102E000BF83F000432E
:102B500030B54FEA41044FEA430594EA050F08BF38
:102B600090EA020F1FBF54EA000C55EA020C7FEAFC
:102B7000645C7FEA655C00F0E2804FEA5454D4EB79
:102B80005555B8BF6D420CDD2C4480EA020281EA43
:102B9000030382EA000083EA010180EA020281EA7B
:102BA0000303362D88BF30BD11F0004F4FEA0131CD
:102BB0004FF4801C4CEA113102D0404261EB4101DC
:102BC00013F0004F4FEA03334CEA133302D0524262
:102BD00063EB430394EA050F00F0A780A4F101041E
:102BE000D5F1200E0DDB02FA0EFC22FA05F2801858
:102BF00041F1000103FA0EF2801843FA05F359413E
:102C00000EE0A5F120050EF1200E012A03FA0EFCBC
:102C100028BF4CF0020C43FA05F3C01851EBE371E6
:102C200001F0004507D54FF0000EDCF1000C7EEB03
:102C300000006EEB0101B1F5801F1BD3B1F5001F41
:102C40000CD349085FEA30004FEA3C0C04F1010460
:102C50004FEA445212F5800F80F09A80BCF1004F89
:102C600008BF5FEA500C50F1000041EB045141EA0B
:102C7000050130BD5FEA4C0C404141EB010111F40C
:102C8000801FA4F10104E9D191F0000F04BF0146B7
:102C90000020B1FA81F308BF2033A3F10B03B3F195
:102CA00020020CDA0C3208DD02F1140CC2F10C0225
:102CB00001FA0CF021FA02F10CE002F11402D8BF83
:102CC000C2F1200C01FA02F120FA0CFCDCBF41EA4F
:102CD0000C019040E41AA2BF01EB0451294330BD1E
:102CE0006FEA04041F3C1CDA0C340EDC04F11404FB
:102CF000C4F1200220FA04F001FA02F340EA0300D2
:102D000021FA04F345EA030130BDC4F10C04C4F117
:102D1000200220FA02F001FA04F340EA03002946F7
:102D200030BD21FA04F0294630BD94F0000F83F441
:102D3000801306BF81F480110134013D4EE77FEA24
:102D4000645C18BF7FEA655C29D094EA050F08BF70
:102D500090EA020F05D054EA000C04BF1946104651
:102D600030BD91EA030F1EBF0021002030BD5FEA95
:102D7000545C05D14000494128BF41F0004130BDBD
:102D800014F580043CBF01F5801130BD01F0004511
:102D900045F0FE4141F470014FF0000030BD7FEA84
:102DA000645C1ABF194610467FEA655C1CBF0B467F
:102DB000024650EA013406BF52EA033591EA030F96
:102DC00041F4002130BD00BF90F0000F04BF00218E
:102DD000704730B54FF4806404F132044FF00005C1
:102DE0004FF0000150E700BF90F0000F04BF00213A
:102DF000704730B54FF4806404F1320410F00045A0
:102E000048BF40424FF000013EE700BF42004FEA9A
:102E1000E2014FEA31014FEA02701FBF12F07F4317
:102E200093F07F4F81F06051704792F0000F14BF14
:102E300093F07F4F704730B54FF4607401F0004558
:102E400021F0004120E700BF50EA010208BF7047AF
:102E500030B54FF000050AE050EA010208BF7047A4
:102E600030B511F0004502D5404261EB41014FF40D
:102E7000806404F132045FEA915C3FF4DCAE4FF011
:102E800003025FEADC0C18BF03325FEADC0C18BFF8
:102E9000033202EBDC02C2F1200300FA03FC20FA49
:102EA00002F001FA03FE40EA0E0021FA02F1144496
:102EB000C1E600BF70B54FF0FF0C4CF4E06C1CEAAB
:102EC00011541DBF1CEA135594EA0C0F95EA0C0F20
:102ED00000F0DEF82C4481EA030621EA4C5123EA93
:102EE0004C5350EA013518BF52EA033541F48011C2
:102EF00043F4801338D0A0FB02CE4FF00005E1FB75
:102F000002E506F00042E0FB03E54FF00006E1FBBE
:102F100003569CF0000F18BF4EF0010EA4F1FF0401
:102F2000B6F5007F64F5407404D25FEA4E0E6D4141
:102F300046EB060642EAC62141EA55514FEAC52052
:102F400040EA5E504FEACE2EB4F1FD0C88BFBCF5CE
:102F5000E06F1ED8BEF1004F08BF5FEA500E50F17F
:102F6000000041EB045170BD06F0004646EA010145
:102F700040EA020081EA0301B4EB5C04C2BFD4EB77
:102F80000C0541EA045170BD41F480114FF0000E70
:102F9000013C00F3AB8014F1360FDEBF002001F0DE
:102FA000004170BDC4F10004203C35DA0C341BDC58
:102FB00004F11404C4F1200500FA05F320FA04F02A
:102FC00001FA05F240EA020001F0004221F000415E
:102FD00010EBD37021FA04F642EB06015EEA430ED1
:102FE00008BF20EAD37070BDC4F10C04C4F1200501
:102FF00000FA04F320FA05F001FA04F240EA0200B4
:1030000001F0004110EBD37041F100015EEA430E84
:1030100008BF20EAD37070BDC4F1200500FA05F2A4
:103020004EEA020E20FA04F301FA05F243EA020323
:1030300021FA04F001F0004121FA04F220EA020032
:1030400000EBD3705EEA430E08BF20EAD37070BD78
:1030500094F0000F0FD101F00046400041EB010158
:1030600011F4801F08BF013CF7D041EA060195F03A
:10307000000F18BF704703F00046520043EB0303F4
:1030800013F4801F08BF013DF7D043EA06037047E1
:1030900094EA0C0F0CEA135518BF95EA0C0F0CD0EC
:1030A00050EA410618BF52EA4306D1D181EA030132
:1030B00001F000414FF0000070BD50EA410606BF2C
:1030C0001046194652EA430619D094EA0C0F02D171
:1030D00050EA013613D195EA0C0F05D152EA0336B6
:1030E0001CBF104619460AD181EA030101F00041D4
:1030F00041F0FE4141F470014FF0000070BD41F01D
:10310000FE4141F4780170BD70B54FF0FF0C4CF4F6
:10311000E06C1CEA11541DBF1CEA135594EA0C0F15
:1031200095EA0C0F00F0A7F8A4EB050481EA030E62
:1031300052EA03354FEA013100F088804FEA033349
:103140004FF0805545EA131343EA12634FEA022217
:1031500045EA111545EA10654FEA00260EF00041D8
:103160009D4208BF964244F1FD0404F5407402D22A
:103170005B084FEA3202B61A65EB03055B084FEABB
:1031800032024FF480104FF4002CB6EB020E75EBB8
:10319000030E22BFB61A754640EA0C005B084FEAE0
:1031A0003202B6EB020E75EB030E22BFB61A75465D
:1031B00040EA5C005B084FEA3202B6EB020E75EBA8
:1031C000030E22BFB61A754640EA9C005B084FEA20
:1031D0003202B6EB020E75EB030E22BFB61A75462D
:1031E00040EADC0055EA060E18D04FEA051545EA1C
:1031F00016754FEA06164FEAC30343EA52734FEAC5
:10320000C2025FEA1C1CC0D111F4801F0BD141EA3D
:1032100000014FF000004FF0004CB6E711F4801FA2
:1032200004BF01430020B4F1FD0C88BFBCF5E06F82
:103230003FF6AFAEB5EB030C04BFB6EB020C5FEA92
:10324000500C50F1000041EB045170BD0EF0004EE7
:103250004EEA113114EB5C04C2BFD4EB0C0541EA19
:10326000045170BD41F480114FF0000E013C90E616
:1032700045EA060E8DE60CEA135594EA0C0F08BFDA
:1032800095EA0C0F3FF43BAF94EA0C0F0AD150EAD9
:1032900001347FF434AF95EA0C0F7FF425AF10466C
:1032A00019462CE795EA0C0F06D152EA03353FF494
:1032B000FDAE1046194622E750EA410618BF52EA11
:1032C00043067FF4C5AE50EA41047FF40DAF52EAE5
:1032D00043057FF4EBAE12E74FEA410212F500120C
:1032E00015D211D56FF47873B3EB625212D94FEA4D
:1032F000C12343F0004343EA505311F0004F23FA37
:1033000002F018BF404270474FF00000704750EA8B
:10331000013005D111F0004008BF6FF00040704748
:103320004FF00000704700BF4FEA4102B2F1E043A6
:1033300024BFB3F5001CDCF1FE5C0DD901F0004C9C
:103340004FEAC0024CEA5070B2F1004F40EB8300EC
:1033500008BF20F00100704711F0804F21D113F118
:103360003872BCBF01F00040704741F480114FEA51
:103370005252C2F11802C2F1200C10FA0CF320FADA
:1033800002F018BF40F001004FEAC1234FEAD323F7
:1033900003FA0CFC40EA0C0023FA02F34FEA430361
:1033A000CCE77FEA625307D150EA01331EBF4FF0EA
:1033B000FE4040F44000704701F0004040F0FE4005
:1033C00040F40000704700BF70B50F4E0F4D761BE4
:1033D000B61018BF002405D0013455F8043B9847B7
:1033E000A642F9D10A4E0B4D04F046FB761BB610EF
:1033F00018BF002406D0013455F8043B9847A64274
:10340000F9D170BD70BD00BF907A0020907A002085
:10341000987A0020907A0020844641EA000313F055
:10342000030349D1403A23D30B6803604B684360E0
:103430008B688360CB68C3600B6903614B69436130
:103440008B698361CB69C3610B6A03624B6A436218
:103450008B6A8362CB6AC3620B6B03634B6B436300
:103460008B6B8363CB6BC36340304031403ADBD21C
:1034700030320BD30B6803604B6843608B6883600A
:10348000CB68C36010301031103AF3D20C3205D340
:1034900051F8043B40F8043B043AF9D2043208D016
:1034A000D2071CBF11F8013B00F8013B01D30B8888
:1034B00003806046704700BF082A13D38B07B1D042
:1034C00010F00303AED0C3F10403D21ADB071CBF14
:1034D00011F8013B00F8013BA4D331F8023B20F87E
:1034E000023B9FE7043AD9D3013A11F8013B00F8B7
:1034F000013BF9D20B7803704B7843708B78837063
:103500006046704770B4840746D0541E002A41D0EC
:10351000CDB2034602E0621EE4B3144603F8015B39
:103520009A07F8D1032C2ED9CDB245EA05250F2CE8
:1035300045EA054519D9264603F11002103E0F2E23
:1035400042F8105C42F80C5C42F8085C42F8045CFB
:1035500002F11002F2D8A4F1100222F00F0204F0DE
:103560000F041032032C13440DD91E462246043A90
:10357000032A46F8045BFAD8221F22F00302043221
:10358000134404F003042CB1C9B21C4403F8011B1A
:10359000A342FBD170BC704714460346C2E700BF8C
:1035A0000EB4F0B506464FF6FF7E9CB021AC54F841
:1035B000042B0D4923466FF0004508684FF402774D
:1035C00002A9029606960194ADF816E0ADF81470C3
:1035D0000495079500F038F8029B00221A701CB081
:1035E000BDE8F04003B07047F87E002020F00301F2
:1035F00010F00300C0F1000051F8043B00F1040C8E
:103600004FEACC0C6FF000021CBF22FA0CF21343FD
:103610004FF0010C4CEA0C2C4CEA0C4CA3EB0C02C6
:1036200022EA030212EACC1204BF51F8043B043030
:10363000F4D0C2F1000102EA0102B2FA82F2C2F150
:103640001F0200EBD20070472DE9F04FC1B0894650
:103650000A920E93089002F083FA036818461793B3
:10366000FFF7C4FFB9F80C3018901C0604D5D9F840
:103670001030002B01F0C28030AF3C464E46002394
:103680001393169319930B932593249323971493D1
:1036900015930A9D2B78002B00F0A980252B02D1D1
:1036A000A5E0252B03D015F8013F002BF9D10A9B8B
:1036B000EB1A73B1249A259901320A981944072A02
:1036C00084E809002591249272DC08340B9A1A448C
:1036D0000B922B78002B00F0E28700231A46691C1E
:1036E0006D788DF86F300C9307934FF0FF3A4B1CB9
:1036F000A5F12001582900F2EA83DFE811F06D02FC
:10370000E803E803D102E803E803E803E803E80379
:10371000E803BC020D02E803F4011102E803D80239
:103720007B027B027B027B027B027B027B027B02B1
:103730007B02E803E803E803E803E803E803E8039F
:10374000E803E803E8038A02DF02E803DF02E80394
:10375000E803E803E803CB03E803E8032F03E803E7
:10376000E803E803E803E8034D03E803E80367031D
:10377000E803E803E803E803E803E803E803E803F1
:10378000E803E80382032B02DF02DF02DF02CA0242
:103790002B02E803E803B202E803D203FB0119039A
:1037A0007402E803A303E8037A00E803E80347028E
:1037B0000898314623AA079302F0E6FF50B93C4629
:1037C000079B83E70898314623AA02F0DDFF002813
:1037D00000F08581B146B9F80C3013F0400F0B9B17
:1037E00018BF4FF0FF33184641B0BDE8F08F0A9D77
:1037F0006FE70A93079B980640F1D7820E9B03F16F
:10380000070929F0070303F10802D3E900890E92A2
:10381000012300229446CDF844A08DF86F20BAF120
:10382000000F03DB079A22F08002079258EA090290
:1038300040F06F83BAF1000F00F07484012B00F0A8
:103840007283022B00F0C28439464FEAD80242EA62
:1038500049724FEAD90008F0070381469046303399
:1038600058EA090201F8013DEFD1079A1091D207F9
:1038700000F17F857B1A0D930D9A53469245B8BF90
:103880001346099300231293BCF1000F02D0099B49
:1038900001330993079B13F002030F9302D0099B96
:1038A00002330993079B13F0840940F02F830C9B8C
:1038B000099AC2EB0308B8F1000F40F32783B8F16F
:1038C000100F2599249ADFF870A529DD53464FF093
:1038D000100BC246A8461D4606E0AAF1100ABAF12E
:1038E000100F04F1080417DD01321031072A259169
:1038F000249284E82008F0DD0898314623AA02F0DB
:1039000043FF00287FF466AFAAF1100ABAF1100F46
:103910003C462599249AE7DC2B464546D0469A46F4
:10392000013208EB010B072ACDF894B02492C4F8B9
:1039300000A0C4F8048000F3DE829DF86FC0083454
:10394000BCF1000F0FD0249B0BF1010B01330DF1E3
:103950006F010122072BCDF894B0249384E8060070
:1039600000F3FD8308340F9B73B1249B0BF1020B12
:1039700001331CA90222072BCDF894B0249384E8CC
:10398000060000F3F9830834B9F1800F00F03483A6
:10399000119B0D9AC2EB030ABAF1000F3CDDBAF19C
:1039A000100F249ADFF894942BDD49465B46A94614
:1039B0004FF01008DDF820B00D4606E0AAF1100A1D
:1039C000BAF1100F04F1080417DD01321033072A91
:1039D0002593249284E82001F0DD5846314623AA3D
:1039E00002F0D2FE00287FF4F5AEAAF1100ABAF177
:1039F000100F3C46259B249AE7DC9B462B464D4600
:103A000099460132D344072ACDF894B0249284E831
:103A1000000600F398830834079BD90500F18F82D4
:103A2000249B0D990133109A8B44072BCDF894B049
:103A300022606160249300F3B8830834079B5A071F
:103A400041D50C9B099A9D1A002D3CDD102D249B1D
:103A5000DFF8E4A323DD4FF010085A46DDF820908C
:103A600004E0103D102D04F1080417DD013310327D
:103A7000072B25922493C4F800A0C4F80480F0DD3D
:103A80004846314623AA02F07FFE00287FF4A2AE0A
:103A9000103D102D3C46259A249BE7DC93460133CC
:103AA000AB44072BCDF894B02493C4F800A0656014
:103AB00009DD0898314623AA02F066FE00287FF44B
:103AC00089AEDDF894B00B9B099A0C998A42ACBF81
:103AD0009B185B180B93BBF1000F7FF473AE0023B0
:103AE00024933C46D5E51946079840F0040007901A
:103AF0001D78FCE50A93079B13F0200300F0388142
:103B00000E9B03F1070929F0070303F10802D3E92B
:103B100000890E9200237CE61D7819462B22E6E5EB
:103B20001D78591C2A2D00F0E587A5F130000928E1
:103B30000B464FF0000A3FF6DBAD13F8015B0AEBD2
:103B40008A0A00EB4A0AA5F130000928F5D94AEAA9
:103B5000EA7ACDE50A93079B8DF86F20980662D527
:103B60000E9B03F1070929F00709D9E9002309F1A0
:103B70000801904699460E91002A73F1000364DB18
:103B80009DF86FC0CDF844A0012348E60A93A74BE7
:103B90008DF86F201693079B9B0640F120810E9BAA
:103BA00003F1070929F0070303F108020E92D3E994
:103BB0000089079BD90740F1228158EA090300F0E8
:103BC0001E81079A302342F002028DF870308DF882
:103BD0007150079202231CE6002A40F0E5841D780C
:103BE0001946202283E5079941F0200107911D78AD
:103BF00019467CE5A5F13000002113F8015B01EBCB
:103C0000810100EB4101A5F130000928F5D90C91A3
:103C10006EE50A93079B8DF86F2043F0100307931E
:103C2000079B98069CD4079BD90640F1C1840E9A45
:103C300013461B6804320E924FEAE3791A469846FF
:103C40004B46002A73F100039ADA4FF02D0CD8F19D
:103C5000000869EB49098DF86FC0CDF844A0012335
:103C6000DDE51D7807996C2D00F0258541F01001E8
:103C7000079119463BE50E9D296808460C91294697
:103C8000002801F10401C0F21D850E911D7819462E
:103C90002DE5079941F0400107911D78194626E569
:103CA000079941F0010107911D7819461FE5079911
:103CB00041F0800107911D78194618E50A93079B8A
:103CC0008DF86F2013F0080F0E9BD34603F1070900
:103CD00000F0378429F0070303F108020E921A68F6
:103CE0005B68149215931599149802F00FFD012842
:103CF0001599149840F00B840022002303F022FA57
:103D0000002840F039869DF86FC0079B484A23F091
:103D1000800307931346DFF828E10321472DD8BF1E
:103D2000734600200991119010930D911290ABE50C
:103D30000E9907980A9330230A688DF870303B4B30
:103D4000782540F002000431169307900E919046BA
:103D50004FF000098DF8715002235AE50A93079B32
:103D600043F010030793079B13F020037FF4C8AEC2
:103D7000079A12F0100240F00A83079B13F04003E9
:103D800000F005830E9913460A460432B1F800800C
:103D90004FF000090E923CE50A93079B43F0100395
:103DA0000793079B98063FF529AD079BD90600F1BD
:103DB000F782079B5A0640F1F3820E9A4FF00009F2
:103DC000B2F80080043201230E9222E50A93194BC7
:103DD0008DF86F201693079B9B063FF5E0AE079B7F
:103DE000D80640F1BB830E9A13461B6804329846EE
:103DF000079B0E92D9074FF000093FF5DEAE022374
:103E000007E50E980A93026800238DF89820024671
:103E100001219C4604328DF86F301193129326AB2A
:103E200009910E920D91109334E500BF3C7900206A
:103E30001C7900202879002008790020F8780020DB
:103E4000187900200E9A0A9313684FF0000B109314
:103E50008DF86FB002F10409002B00F05885BAF11B
:103E6000000F1098C0F2EA845946524602F002F957
:103E7000002800F08985109BCDF844B0C31A0D933B
:103E8000CDF8389023EAE3730993CDF848B09DF854
:103E90006FC0F9E4079941F0080107911D781946B0
:103EA00025E40A93079B8DF86F209A0640F16583FD
:103EB0000E9A134604330E930B9B11684FEAE37975
:103EC0001A4698464B46C1E90023FFF7E2BB0A9326
:103ED0008DF86F20002D00F0E283002301229C4624
:103EE0008DF86F301193129326AB09928DF898508C
:103EF0000D921093CEE40898314623AA02F044FCB8
:103F000000287FF467AC3C469DF86FC0DDF894B0A4
:103F100016E5012B7FF495ACB9F1000F08BFB8F19D
:103F20000A0F80F006820DF5807B08F130080BF84F
:103F3000418DCBEB07030D93CDF840B09CE4652D8C
:103F400040F3A080149815990022002303F0F0F8A4
:103F5000002800F05481249BC14901330BF1010B6F
:103F60000122072BCDF894B0249384E8060000F3D7
:103F70003E8308341D9B139A934203DB079BDA07A9
:103F80007FF55CAD249B18990133179A8B44072B5E
:103F9000CDF894B022606160249300F31A84083451
:103FA000139B5D1E002D7FF749AD102D249BDFF87C
:103FB000B49240F3EF804FF010085A46DDF820A08D
:103FC00004E00834103D102D40F3E380013310323B
:103FD000072B25922493C4F80090C4F80480F0DDE8
:103FE0005046314623AA02F0CFFB00287FF4F2AB03
:103FF0003C46259A249BE5E70C9B099AC2EB030AF1
:10400000BAF1000F7FF7C4ACBAF1100F249ADFF8B1
:1040100054922BDD49465B46A9464FF01008DDF867
:1040200020B00D4606E0AAF1100ABAF1100F04F113
:10403000080417DD01321033072A2593249284E8FF
:104040002001F0DD5846314623AA02F09DFB0028EE
:104050007FF4C0ABAAF1100ABAF1100F3C46259BC1
:10406000249AE7DC9B462B464D4699460132D344C1
:10407000072ACDF894B0249284E8000600F33A822F
:10408000083485E4139B249D012B40F3FC8101350A
:1040900010990BF101030122072D2593216024952E
:1040A000626000F30E8208341899013503EB010BAE
:1040B000179B072DCDF894B024952360616000F321
:1040C0000C820834002314981599002203F030F86C
:1040D000139B002840F0E380109A013B0135013228
:1040E0009B44072D22602495CDF894B0636000F3C3
:1040F00013810834199A013593441FAB072DCDF86D
:1041000094B02495626023607FF797AC089831469D
:1041100023AA02F039FB00287FF45CAB3C46DDF8B3
:1041200094B08BE4002B4CD1079BD80749D50DF5F3
:10413000807B30230BF8413DCBEB07030D93CDF88B
:1041400040B0FFF799BB0898314623AA02F01CFB48
:1041500000287FF43FAB3C46DDF894B05CE408985F
:10416000314623AA02F010FB00287FF433AB3C4613
:10417000DDF894B0FFF7F7BB0898314623AA02F0A8
:1041800003FB00287FF426AB3C46DDF894B0FFF734
:10419000FBBB93460133AB44072BCDF894B024937B
:1041A000C4F8009065607FF748AC0898314623AAB0
:1041B00002F0EAFA00287FF40DABDDF894B03C463B
:1041C0003CE4CDF834A01097FFF756BBBB461698D9
:1041D0004FEA181343EA09734FEA191108F00F0266
:1041E00089469846835C0BF8013D58EA0903EFD1F4
:1041F0005B46CDF840B0FB1A0D93FFF73DBB1D9D0C
:10420000002D40F30082139A129913468A42A8BFE8
:104210000B461D461099002D01EB020A0CDD0A46E3
:10422000249BAB440133072BCDF894B084E82400E1
:10423000249300F348830834129B002DA8BF5B1B16
:10424000002B1D4640F3C180102D249BDFF81490F5
:1042500040F3C0815A464FF01008DDF820B008E066
:1042600058790020F87800200834103D102D40F3D4
:10427000B08101331032072B25922493C4F80090AB
:10428000C4F80480F0DD5846314623AA02F07CFAD7
:1042900000287FF49FAA3C46259A249BE5E703F17A
:1042A000FF38B8F1000F7FF725AFB8F1100FDFF836
:1042B000489525DD5B464FF0100ADDF820B006E09A
:1042C000A8F11008B8F1100F04F1080417DD01354A
:1042D0001033072D2593249584E80006F0DD584619
:1042E000314623AA02F050FA00287FF473AAA8F1FD
:1042F0001008B8F1100F3C46259B249DE7DC9B4637
:104300000135C344072DCDF894B02495C4F800902E
:10431000C4F804807FF7EDAE0898314623AA02F076
:1043200033FA00287FF456AADDF894B0249D3C4669
:10433000E0E6BB46CDF824C0404649460A220023A9
:1043400002F028FF3032404649460BF8012D002389
:104350000A2202F01FFF8046894658EA0903EBD182
:104360005B46FB1ADDF824C0CDF840B00D93FFF793
:1043700083BA302B109B3FF43EAF013B1A4610939B
:10438000BA1A30230D9201F8013CFFF775BA0E9965
:104390004FF000090A6804310E919046FFF739BAD0
:1043A0000E9901230A6804310E9190464FF00009DE
:1043B000FFF72FBA0898314623AA02F0E5F9002842
:1043C0007FF408AA3C46DDF894B0109A12991D9B20
:1043D0000A449046139A934246DB079AD00743D487
:1043E000139AC8EB0A05D31A9D42A8BF1D46002D9B
:1043F0000CDD249AAB440132072ACDF894B0C4F8FE
:1044000000806560249200F396820834002DB4BFCA
:104410001D465D1B002D7FF711AB102D249BDFF88F
:10442000D8937FF7B7AE4FF010085A46DDF820A0BA
:1044300004E00834103D102D7FF7ABAE013310328D
:10444000072B25922493C4F80090C4F80480F0DD73
:104450005046314623AA02F097F900287FF4BAA902
:104460003C46259A249BE5E7249A1898013217992F
:104470008344072ACDF894B021606060249200F351
:1044800039820834ACE7079BD9073FF500AE013508
:10449000109A0BF1010B0123072DCDF894B0226087
:1044A000249563607FF725AE0898314623AA02F071
:1044B0006BF900287FF48EA93C46DDF894B0249D6A
:1044C00018E60898314623AA02F05EF900287FF426
:1044D00081A93C46259B249DE6E50898314623AA00
:1044E00002F052F900287FF475A93C46DDF894B03B
:1044F000249DE7E50898314623AA02F045F90028F3
:104500007FF468A93C46DDF894B0FFF741BA02F0A9
:10451000FDF8002840F0DD80B44AB54B8646472DB3
:10452000D8BF1A4611900798032120F08000099106
:104530000790CDF848E010920D919DF86FC0FFF7FD
:10454000A3B929F00709D9F800301493D9F8043039
:10455000159309F108030E93FFF7C5BB079B0E9A4D
:1045600013F0400F13463FF440AC0433B2F8008020
:104570004FF000090E93FFF71CBB079BDB060BD423
:10458000079B5D0608D50E9A136804320E92BDF89B
:104590002C201A80FFF77DB80E9A136804320E9211
:1045A0000B9A1A60FFF775B819461D78FFF79FB888
:1045B000079B0E9A13F0400F13463FF43AABB2F943
:1045C000008004334FEAE8790E9342464B46FFF7EA
:1045D000D3BA93460133AB44072BCDF894B0249360
:1045E000C4F8009065603FF7E5AE0834EDE6089842
:1045F000314623AA02F0C8F800287FF4EBA83C4615
:10460000DDF894B0B6E4249B7A4901330BF1010B39
:104610000122072BCDF894B0249384E8060000F320
:10462000FD8008342DB9139B1BB9079BDB077FF571
:1046300005AA249B18980133179A0BEB0001072B4E
:10464000259122606060249300F3F48104F1080254
:104650006D42002D40F30781102DDFF89C9140F34F
:104660003E811024DDF8208004E00832103D102D3A
:1046700040F3358101331031072B25912493C2F883
:1046800000905460F1DD4046314623AA02F07CF8E8
:1046900000287FF49FA83A462599249BE6E7259BAE
:1046A000B146002B3FF497A80898314623AA02F0A0
:1046B0006BF8FFF790B841F0200107915D78591C25
:1046C000FFF715B80C980E9140420C901946FFF771
:1046D0000BBA25F02003BAF1FF3F0D9300F0AB8039
:1046E000472B05D1BAF1000F14BFD3464FF0010B91
:1046F000079B43F480731193159BB3F1000A149B3D
:104700000993B7BF5346002303F1004A2D23662DBA
:104710000F9300F0B980462D00F0B6800D9B02206B
:10472000452B14BFD9460BF101091DA98DE80102E3
:1047300002911EA821A90390099A53460491089852
:1047400000F0A6FA672D109002D0472D40F0AC8003
:10475000079BDB0740F19681109B03EB0908099842
:1047600051460022002302F0E3FC002840F00A81B9
:10477000219B984506D930215A1C21921970219B02
:104780009845F9D8109A9B1A13930D9B472B1D9BA4
:1047900000F0EB80652D40F30581662D129300F04B
:1047A0006481139B129A934200F35181079BD907AE
:1047B00000F1888122EAE2730D920F9A002A40F0FC
:1047C000C9800993119B9DF86FC007931192FFF761
:1047D0005BB80898314623AA01F0D6FF00287EF482
:1047E000F9AF3C46DDF894B0FFF7DABB247900203E
:1047F0002079002058790020F8780020089840217E
:1048000001F0B2F9C9F80000C9F81000002800F062
:1048100086814023C9F81430FEF72EBF0898314630
:1048200023AA01F0B1FF00287EF4D4AF3C461D9DC1
:10483000DDF894B0F6E64FF0060B59E7CDF844B03A
:10484000FEF7D4FECDF838900D900346FFF71ABB63
:104850000898314623AA01F097FF00287EF4BAAFEA
:104860003A462599249B139C013301EB040B1099C4
:10487000072BCDF894B02493116054603FF795ACAA
:1048800002F10804FFF7DAB803201DA98DE801083A
:1048900002911EA821A90390099A534604910898F1
:1048A00000F0F6F9D9461090109B03EB09080D9B18
:1048B000462B7FF454AF109B1B78302B00F0E48024
:1048C0001D9B98444BE70898314623AA01F05CFFF2
:1048D00000287EF47FAF3C46DDF894B0ACE40133B1
:1048E0002944072B25912493C2F800905560AFDC32
:1048F0000832B8E70898314623AA01F045FF00289E
:104900007EF468AF3C461D9BDDF894B068E55346E5
:10491000062B28BF06230D9323EAE373DDF840C07E
:104920000993844BCDF83890CDF844C0CDF848C0F9
:104930001093FEF7A9BF0898314623AA01F024FF7F
:1049400000287EF447AF1D9B139ADDF894B0D31A6C
:104950003C465BE50993119B4FF02D0C0793002318
:104960008DF86FC01193FEF792BFDA1C19DB9B45DF
:1049700017DB1293672514E72D239C468DF86F30C3
:10498000FFF7C3B94346FDE62AEAEA731190CDF872
:10499000389012909DF86FC00993CDF834A0FEF7BF
:1049A00073BF023D013B002B1D93BABF5B422D221A
:1049B0002B22092B8DF87C508DF87D207ADD0DF1AE
:1049C0008B0001465C4A82FB032EDA17C2EBAE0E67
:1049D0000EEB8E02A3EB420273463032092B01F834
:1049E000012DEFDC0A4630335FFA83FE02F801ED59
:1049F000904240F29B800DF17E020B4601E013F8DD
:104A000001EB834202F801EBF9D123AB5B1A0DF104
:104A10007E0213441FAA9B1A139A1993012A134466
:104A20000D935EDD0D9B002201330D93129223EA5C
:104A3000E373C2E60898314623AA01F0A5FE0028D8
:104A40007EF4C8AE3A461D9D2599249B00E6129B34
:104A5000002BD8BFC3F10208139BC8BF4FF0010859
:104A600043440D9323EAE373A7E6002B30DDBBF14B
:104A7000000F17D1079BDB0714D4129A22EAE273C6
:104A80000D929AE6219B7DE609985146002200236B
:104A900002F04EFB00287FF413AFC9F101031D9310
:104AA00098445CE6129B0BF1010843440D9323EA02
:104AB000E37382E6303330228DF87F308DF87E202C
:104AC00020ABA7E7129B01330D9323EAE37374E64F
:104AD000BBF1000F1DD1079BD8071AD401230D93FA
:104AE0006BE6079B13F001039CD112930D9B23EA05
:104AF000E37362E60E9D2846D5F800A00430BAF1B3
:104B0000000F5D780E90BEF6F2AD4FF0FF3AFEF763
:104B1000EEBD0BF102030D9323EAE3734DE6089A11
:104B20000C2313604FF0FF30FEF75EBE0DF17E03E5
:104B300070E700BF5079002067666666024B13B1CC
:104B4000024800F005B8704700000000355B002007
:104B5000014600200246034601F098BE2DE9F04FC1
:104B600003690F6983B09F4200F38B80013F01F11D
:104B7000140600F1140A56F827305AF8272001339A
:104B8000B2FBF3F8BB00009306EB03095344019317
:104B9000B8F1000F3DD000231C46B446D6461A4655
:104BA0005CF804BBDEF800501FFA8BF34FEA1B4B96
:104BB00003FB08220BFB08F303EB124392B2A41A87
:104BC0001FFA83FBAAB22244CBEB154404EB224428
:104BD00092B242EA0442E1454EF8042B4FEA2444E3
:104BE0004FEA1342DCD2009B5AF803308BB9019C88
:104BF000231F9A450CD254F8043C4BB9A4F1080386
:104C000002E01A68043B1AB99A4507F1FF37F8D356
:104C10000761044601F090FC00282EDB0023554676
:104C2000194608F1010856F8042B2B6890B2081AAF
:104C3000120C99B2C2EB1343421803EB224392B217
:104C400042EA0342B14545F8042B4FEA2341EAD238
:104C50005AF827200AEB87037AB91A1F92450BD21C
:104C600053F8042C42B9083B02E01A68043B1AB915
:104C70009A4507F1FF37F8D32761404603B0BDE8F6
:104C8000F08F002003B0BDE8F08F00BF00000000EF
:104C90002DE9F04F016C99B00446CDE90223259D22
:104CA00041B1426C012393408B604A6001F058FA95
:104CB00000232364DDE90223002B994636DB002321
:104CC0002B60A54B1A4609EA0303934217D0DDE98E
:104CD0000267002200233046394602F029FA804656
:104CE00000282BD0249A01231360269B002B00F070
:104CF000CB809A481860013819B0BDE8F08F42F2B5
:104D00000F73249A1360029B002B00F0A680944836
:104D1000269B002BF0D0C378002B00F0B78000F169
:104D20000803269A136019B0BDE8F08F039A012397
:104D300022F000492B60CDF80C90C2E717AA16AB01
:104D40008DE80C00204632463B4601F08BFC5FEAC2
:104D50001955834640F08A80DDF85880179D6FF41E
:104D6000826345449D42C0F295827E4A05F2124319
:104D7000521B09FA02F9029A22FA03F049EA0000EA
:104D8000FEF722F80123013DA1F1F87112930022F0
:104D9000754BFDF7DBFE6AA3D3E90023FEF78AF823
:104DA00069A3D3E90023FDF7D3FE064628460F4644
:104DB000FEF71AF866A3D3E90023FEF77BF8024654
:104DC0000B4630463946FDF7C3FE06460F46FEF752
:104DD00083FA3946059000223046002302F0B2F9EA
:104DE000002840F0A481059B162B00F29D81DDE98F
:104DF000022305985D4901EBC001D1E9000102F0F1
:104E0000BFF9002800F05082059B013B0593002369
:104E10000C93C5EB0805B5F1010A00F19F81002351
:104E20000693059B002BC0F290819A440B930023BC
:104E30000993229B092B2BD8052B40F37786043B43
:104E400022930025229B023B032B00F25586DFE8CC
:104E500013F0CF03C103B0026A06414B444AC9F3C1
:104E60001300002814BF1846104651E7C7F3130378
:104E700043F07F51CDF848803046A5F2FF3541F42C
:104E80004011DDF8588082E73A4835E7C31C48E70F
:104E9000002161642046229101F03AF94FF0FF337E
:104EA000229A07930D9301230890239220640A937A
:104EB000179B002BC0F2D080059A0E2A00F3CC80FD
:104EC0002A4B03EBC203D3E90089239B002BC0F2DA
:104ED0009283DDE9026742464B4630463946FEF78B
:104EE00013F9FEF7F9F98246FDF77EFF42464B467D
:104EF000FDF7E0FF02460B4630463946FDF726FE39
:104F0000079E089F0AF13005012E3D7002460B46B0
:104F100007F1010562D00022174BFDF7CBFF0022FD
:104F2000002306460F4602F003F9002840F0818076
:104F3000CDF808B0DDF820A0DDF81CB006942AE01A
:104F400061436F63A787D23FB3C8608B288AC63F8F
:104F5000FB799F501344D33F0000F07F5979002024
:104F6000687900200EFCFFFF0000F83F78790020F0
:104F70005C79002058790020000024400022C84BB2
:104F8000FDF798FF0022002306460F4602F0D0F8F6
:104F9000002840F0E08342464B4630463946FEF753
:104FA000B3F8FEF799F90446FDF71EFF42464B465B
:104FB000FDF780FF02460B4630463946FDF7C6FD39
:104FC00004F1300605F8016BCAEB0506B34502464D
:104FD0000B46D3D1A246DDF808B0069C1046194610
:104FE000FDF7B6FD06460F464046494632463B466B
:104FF00002F0A8F848B94046494632463B4602F01E
:1050000097F8B0B11AF0010F13D015F8018C6B1E90
:10501000089904E08B4200F0458413F8018DB8F143
:10502000390F03F101051A46F4D008F10103DBB290
:1050300013702046594601F093F80022059B2A7010
:10504000249A01331360269B002B00F04A830898B2
:105050001D6019B0BDE8F08F0A9A002A00F0848024
:10506000229A012A40F30983079B5F1E099BBB42DA
:10507000C0F2AF83DF1B079B002BC0F2A584069D07
:10508000079B069A20461A44012106929A4401F091
:1050900001F9064665B1BAF1000F09DDAA4553468C
:1050A000A8BF2B46069AED1AD21A0692C3EB0A0A3B
:1050B000099B002B1ADD0A9B002B00F08383002F35
:1050C00010DD31463A46204601F08EF906465A4632
:1050D0003146204601F0E8F880465946204601F066
:1050E0003FF8C346099BDA1B40F0A7822046012106
:1050F00001F0D0F80B9B8046002B39DD01461A46A3
:10510000204601F071F9229B8046012B40F39B82DF
:105110004FF00009D8F8103008EB8303186901F04C
:105120006BF8C0F120002DE001230C9371E6059887
:10513000FDF75AFE32463B4601F0FAFF00287FF4A5
:1051400052AE059B013B05934DE6069A059BD21A8C
:105150005B420993002306920B936AE6CAF10003AF
:1051600006934FF0000A5CE6099F069D0A9E91E7B0
:10517000229B012B40F3B8824FF000090B9B002BC0
:10518000C8D10120504410F01F0000F08180C0F110
:105190002003042B40F3C184C0F11C00069B05448E
:1051A000034406938244069B002B05DD59461A46AC
:1051B000204601F069F98346BAF1000F05DD41464A
:1051C0005246204601F060F980460C9B002B40F0CF
:1051D0006D82079B002B40F39B820A9B002B71D1B1
:1051E000DDF82090079F4D4604E05946204600F028
:1051F000C1FF834658464146FFF7B0FC303005F802
:10520000010BC9EB0503BB424FF00A024FF000034C
:10521000EBDB089B079A8446012AACBF9B1801333D
:105220001D464FF0000A594601222046CDF808C01D
:1052300001F02AF94146834601F07EF90028DDF8A5
:1052400008C040F3FC8215F8012C6B1E089904E09D
:105250008B4200F0798213F8012D392A03F1010500
:10526000F6D001321A704146204600F079FF002E38
:105270003FF4DFAEBAF1000F05D0B24503D051467E
:10528000204600F06DFF3146204600F069FFD0E671
:105290001C2083E7034B029A5B1B02FA03F06FE5C5
:1052A00000002440EEFBFFFF0C90B2E531460023E6
:1052B00020460A2200F05EFF0D9B0646002B40F3BD
:1052C00015840793002D05DD31462A46204601F05E
:1052D000DBF80646B9F1000F40F0EE82B146089ABD
:1052E000079B1746013BD3180993029B03F0010368
:1052F0000A9341465846FFF731FC31460546584669
:1053000001F01AF94A4682464146204601F038F932
:10531000C268034605F1300C002A40F0BD811946F1
:105320005846CDF81CC0069301F006F9069B029082
:105330001946204600F014FF029ADDF81CC02AB975
:10534000229B1BB90A9B002B00F0B083BAF1000F1F
:10535000C0F2578205D1229B1BB90A9B002B00F09B
:105360005082002A00F3BC82099B07F1010A9F4288
:1053700087F800C0554600F0BF8259460A22002334
:10538000204600F0F7FE4E458346314620464FF05A
:105390000A024FF0000300F0798100F0EBFE49466D
:1053A00006460A222046002300F0E4FE57468146C6
:1053B0009FE701230A93239B002B40F319821F468A
:1053C0001E460D9307930021172F61640AD901220D
:1053D00004235B0003F114008742114602F101022D
:1053E000F7D26164204600F093FE0E2E08902064F0
:1053F0003FF65EAD002D3FF45BADDDE9022305997C
:10540000CDE90E23002940F32682BA4B01F00F02AA
:105410000D1103EBC203E906D3E9006740F1E18116
:10542000DDE90E01B44B05F00F05D3E90823FDF7C4
:105430006BFECDE902014FF003088DB130463946CD
:10544000DFF8B492EA0705D5D9E90023FDF732FD6C
:1054500008F101086D1009F10809F3D106460F465D
:10546000DDE9020132463B46FDF74EFECDE9020181
:105470000C9B43B1DDE902010022A04B01F062FE6A
:10548000002840F0B5824046FDF7AEFCDDE902237E
:10549000FDF710FD9A4B0022FDF75AFB079B0646CD
:1054A000A1F15077002B00F06881059BDDF81CC04E
:1054B00013930A9B002B00F026828E4B002003EBF7
:1054C000CC0353E902238F49CDF850C0FDF71CFEF1
:1054D00032463B46FDF73AFBDDE90267CDE91001B4
:1054E00039463046FDF7F8FE0546FDF77DFC0246DD
:1054F0000B4630463946FDF729FBDDE910233035F0
:105500005FFA85F8089D064685F800800F4601354C
:1055100001F018FE002840F0B98232463B460020D8
:105520007649FDF713FB02460B46DDE9100101F059
:1055300027FE002840F0B382DDF850C0BCF1010F17
:1055400040F33A81089BCDF850A0CDF808B003EBAA
:105550000C09DDE910ABA0460FE032463B460020C7
:105560006649FDF7F3FA52465B4601F0EBFD002871
:1055700040F090824D4500F01A8150465946002275
:10558000614BFDF797FC00225F4B82468B4630460D
:105590003946FDF78FFC0F460646FDF79DFE044693
:1055A000FDF722FC02460B4630463946FDF7CEFA9F
:1055B0003034E4B205F8014B52465B4606460F46CE
:1055C00001F0C0FD0028C8D0139BDDF808B04446A8
:1055D00005932EE500230A93239B059A13440D930C
:1055E0000133002B079340F30A81079E3746EAE612
:1055F00000230A93DFE6079B002B3FF76AAC40F0DD
:10560000668240460022414B4946FDF753FCDDE9E6
:10561000022301F0ABFDDDF81C804646002800F0B7
:105620008B80239B089DDB4305934146204600F079
:1056300097FD002E7FF427AEFBE45946204600F08C
:10564000D3FE834652E5029B002B7FF461AD039BA2
:10565000C3F31303002B7FF48FAD039B23F00047AC
:105660003F0D3F05002F00F01E82069B0AF1010A44
:10567000013306934FF0010980E5129A002A00F0E9
:10568000A98103F23343099F069DFAE400F072FDFD
:105690005746064681462CE601462046CDF808C00E
:1056A00000F05EFD0122DDF808C04FE65846414695
:1056B00000F042FF0028BFF68CAD059F594600233D
:1056C00020460A22013F059700F054FD0A9B8346BD
:1056D000002B7FF4EBAD0D9B002B40F3FC81079377
:1056E0007EE50898FFF708BB029B002B7FF444ADD2
:1056F000ADE700BF78790020507A00200000F03F2D
:1057000000001C400000E03F000024400000144066
:10571000229B022B7FF761AD079B002B81D1414675
:105720000522204600F026FD80465846414600F0FE
:1057300003FF00287FF775AF059A089931230132DE
:1057400005920B704D1C70E7059A312301320592CA
:10575000089A137087E5DDF808B0069C69E44046B6
:10576000FDF742FBDDE90223FDF7A4FB0022BE4B5F
:10577000FDF7EEF90646A1F15077DDE902010022BE
:10578000BA4BFDF7E3F932463B46CDE9020101F0A1
:10579000F7FC8046002840F0B280DDE90201324685
:1057A00007F1004301F0CEFC30B1464639E74446EC
:1057B000DDF850A0DDF808B0DDE90E23CDE90223C5
:1057C000FFF776BB5946099A204600F00DFE834646
:1057D0008CE4099B0B9AFB1A1A4409970B92002739
:1057E00049E4DDE90E234FF00208CDE9022324E667
:1057F000012623960D96079600216164F2E51E4668
:10580000FAE7002A15DD594601222046CDF808C0E6
:1058100000F03AFE4146834600F08EFE0028DDF897
:1058200008C040F34D81BCF1390F00F009810CF143
:10583000010CB24687F800C07D1C4E4613E504D12A
:105840001CF0010F01D0FEE4154615F8013C6A1E5C
:10585000302BF9D007E5059B5D42002D00F0C1809B
:10586000DDE90E01824B05F00F0203EBC203D3E921
:105870000023FDF71FFB2D11CDE9020100F030815F
:105880007C4E4FF00208EB0705D5D6E90023FDF763
:1058900011FB08F101086D1006F10806F3D1CDE9FE
:1058A0000201E5E5059A302301320592089A13704A
:1058B00031231370FFF7BDBB7168204600F028FC50
:1058C0000546336906F10C019A1C92000C30FDF775
:1058D000A3FD20462946012200F0D6FD8146FEE4C4
:1058E000BCF1390F00F0AC800CF1010CB24687F826
:1058F00000C07D1C4E46B6E4B2464E4693E44FF0DF
:105900000008464618E75A490CF1FF3301EBC30182
:105910003246D1E9000114933B46CDF854C0FDF75F
:10592000C9FADDE90267CDE9100139463046FDF7D5
:10593000D3FC0546FDF758FA02460B463046394679
:10594000FDF704F9DDF854C0089A3035BCF1010FB9
:10595000157006460F4602F1010523D0089BCDF8CD
:1059600008A063445E469A46AB460022424BFDF7D0
:10597000A1FA89468046FDF7AFFC0746FDF734FAE9
:10598000303702460B4640464946FDF7DFF80BF834
:10599000017BD345E9D1B3460F460646149BDDF89B
:1059A00008A01D440022354BDDE91001FDF7D0F8B9
:1059B00032463B4601F0C6FB002848D0139B0593B6
:1059C00015F8018CFFF723BB069B079A9D1A00234D
:1059D000FFF757BB169B099FC3F13603069DFFF7E0
:1059E00050BBDDE90E234FF00208CDE902233FE56D
:1059F000079B002B3FF4B3AE0D9D002D7FF7DCAE6F
:105A0000DDE9020100221C4BFDF754FA06460F4661
:105A100008F10100CDE90267FDF7E6F902460B4601
:105A200030463946FDF746FA0F4B0022FDF790F855
:105A3000059B0646013B1393A1F15077AC4638E530
:105A40003922B2463A704E467D1CFFF7FEBBDDE9B7
:105A5000102300200949FDF779F832463B4601F052
:105A60008FFB70B9A8E600BF00001C400000144086
:105A700078790020507A0020000024400000E03FA8
:105A8000154615F8013C6A1E302BF9D0139B05937F
:105A9000FFF7CFBA4346A0461C46DDF808B0139B7B
:105AA0000593FFF7B4BAB946FFF768BBBCF1390FED
:105AB000C6D0BAF1000F7FF7BCAE05F1310CB8E6E5
:105AC0007FF4B7AE1CF0010F3FF4B3AEABE64FF07E
:105AD00000084646A5E5229B022B04DC0D9BFEE553
