:1000000000000120910100007F0300008103000037
:100010008303000085030000870300000000000048
:100020000000000000000000000000008903000044
:100030008B030000000000008D0300008F03000010
:10004000910300009303000091140000AD14000020
:10005000990300009B0300009D0300009F03000024
:10006000A1030000A3030000A10A0000BD0A0000D4
:10007000A9030000AB030000AD030000AF030000C4
:10008000B1030000B3030000B50300006D0B0000D6
:10009000B9030000BB030000BD030000BF03000064
:1000A000C1030000C3030000C50300006915000080
:1000B00009160000CB030000CD030000CF030000B1
:1000C000D1030000D3030000D5030000D7030000D4
:1000D000D9030000DB030000DD030000DF030000A4
:1000E000E1030000E3030000E5030000E703000074
:1000F000E9030000EB030000ED030000EF03000044
:10010000F1030000F3030000F5030000F703000013
:10011000F9030000FB030000FD030000FF030000E3
:1001200001040000030400000504000007040000AF
:10013000090400000B0400000D0400000F0400007F
:10014000110400001304000015040000170400004F
:10015000190400001B0400001D0400001F0400001F
:1001600021040000230400002504000027040000EF
:10017000290400002B0400002D0400002F040000BF
:100180003104000033040000000000000000000003
:100190004FF0000BDFF8BE020068DFF8B612096806
:1001A00001F0030100F01C00142801D14BF0020BF8
:1001B000002901D04BF0010BBBF1000F05D0A7487F
:1001C000A749DFF8722200F09FF8A64880470BF09D
:1001D000020ABAF1000F0CD0DFF86E02DFF86E12DF
:1001E00002680B680FB44FF000024FF0FF0302608B
:1001F0000B609D489D4A9E4B022808D1DFF83E12B5
:100200000A60DFF842120A60DFF836120B6001283C
:1002100008D1DFF82E120A60DFF82A120A60DFF830
:100220001E120B609348002809D193489349944AC1
:1002300000F032F893489449944A00F02DF894481D
:100240009449954A00F028F894489549DFF8E6214A
:1002500000F05AF8BBF1000F12D092489249DFF833
:10026000DA2100F051F80BF0020ABAF1000F07D0C2
:100270000FBC02600B6000BFAFF30080AFF30080E3
:10028000DFF828020FF2030E00474FF000004FF096
:100290000001DFF81CF2FEE72DE9F841884225D085
:1002A000B2EB010200D5FEE740EA010313F00303BD
:1002B00002D000F01DF819E04FF000039046121133
:1002C000F7D09A421CBFF0C8F0C103F10103F8D186
:1002D00008F00F08B8F1000F08D004780C7000F196
:1002E000010001F10101B8F10108F6D1BDE8F88182
:1002F00008B54FF0000303780B7000F1010001F125
:100300000101013AF7D108BD884237D000F0030659
:10031000002E14D04FF00405A5EB06044FF008079B
:1003200007FB06F8914669FA08F9002C07D080F817
:10033000009069FA07F900F10100013CF5E74FF080
:1003400000060F46091A88460911914614461546BB
:10035000B14206D018BFA0E8340206F10106B1424E
:10036000F8D108F00F08B8F1000F07D002704FEA7B
:10037000322200F10100B8F10108F4E77047FEE70E
:10038000FEE7FEE7FEE7FEE7FEE7FEE7FEE7FEE745
:10039000FEE7FEE7FEE7FEE7FEE7FEE7FEE7FEE735
:1003A000FEE7FEE7FEE7FEE7FEE7FEE7FEE7FEE725
:1003B000FEE7FEE7FEE7FEE7FEE7FEE7FEE7FEE715
:1003C000FEE7FEE7FEE7FEE7FEE7FEE7FEE7FEE705
:1003D000FEE7FEE7FEE7FEE7FEE7FEE7FEE7FEE7F5
:1003E000FEE7FEE7FEE7FEE7FEE7FEE7FEE7FEE7E5
:1003F000FEE7FEE7FEE7FEE7FEE7FEE7FEE7FEE7D5
:10040000FEE7FEE7FEE7FEE7FEE7FEE7FEE7FEE7C4
:10041000FEE7FEE7FEE7FEE7FEE7FEE7FEE7FEE7B4
:10042000FEE7FEE7FEE7FEE7FEE7FEE7FEE7FEE7A4
:10043000FEE7FEE7704700000000A2A2A2A2008033
:100440000340088003401080034030800340348024
:1004500003403880034018080240000000F00020EC
:1004600000000120B50400000000000000000000B2
:10047000010000000100000000000060000000001A
:1004800090010000C0050060C005000008000020C9
:10049000906A006010000020B0080020B008002022
:1004A000E00A0020E00A002000F00020E523000020
:1004B000C11700004FF602020C4BD3F84C119142C9
:1004C00006D00B4A536943F400735361FFF7B2BF80
:1004D000D3F8982042F48072C3F89820D3F898207B
:1004E00022F08062C3F89820EBE700BF0080034051
:1004F00000ED00E0F0B5244B83B0D3F89820510113
:1005000017D4D3F89820D2042ED56A461F4908681C
:10051000496803C2D3F89C2002A9C2F382120A449C
:1005200012F8082C012A23D003D3DFF890E0184BEF
:1005300009E0D3F85011174A11F0040F164B18BFF9
:100540001346DFF878E0154F154E164D164C174838
:10055000174A1849CEF800303B6033602B602360A7
:100560000360116003B0F0BDDFF850E0124BEAE722
:10057000DFF848E0094F0A4E0A4D0B4C0B480C4A75
:100580000C494FF40043E5E700800340FC6700009E
:1005900040420F0080F0FA0240787D0124000020E4
:1005A000280000201C000020200000201400002053
:1005B00018000020404B4C00002D31012C00002081
:1005C00010B5054C237833B9044B13B10448AFF38D
:1005D00000800123237010BDB0080020000000003F
:1005E000586A0000084B10B51BB108480849AFF322
:1005F00000800848036803B910BD074B002BFBD0EF
:10060000BDE81040184700BF00000000586A000015
:10061000B408002010000020000000002DE9F04F79
:10062000DFF854E283B070450446904600F0D18074
:100630008B488C4B05469A6C8B4E42F480724FF07F
:100640000B0C4FF40067206084F804C09A64C6F86D
:1006500080719A6C22F480729A6400232B71226854
:100660004FF0010C13722268744502F1080002F188
:10067000100502F13409C0F3130A00F0704002F1D2
:10068000380702F13006C5F3130B00EB4A1005F0F2
:100690007045C9F3130A09F0704905EB4B1509EBD6
:1006A0004A19C7F3130BC6F3130A07F0704706F095
:1006B000704607EB4B1706EB4A1600F1007006F187
:1006C000007605F1007509F1007907F10077C0F8AF
:1006D00004C0C0F808C0C0F800C02B616B61C9F845
:1006E0000430C9F800307B607361B361F361FB6073
:1006F00082F84430226882F84830226882F84C3010
:100700007CD05A4B9C4216D02268002382F80C8081
:10071000A16084F80C8063612361A361236263623A
:10072000E361A362E36223636363A363E3636373CD
:1007300003B0BDE8F08FA1600191FFF7DBFE4C4BE9
:1007400001991B68DB00B3FBF1F3DA09B2F5803FD6
:100750004FEA5305D8D2012A58D9D4F800E0C3F3A0
:10076000C73C0EF10C0000F0704606F10076C0F3B5
:10077000130001271C36400137508EF804C0206852
:10078000D6B206702668A5EB821EAEEBC21206F149
:100790000C0506F1300000F0704C134405F0704277
:1007A000A3EB4E0302F100720CF1007EC5F31305BA
:1007B000C0F31300DBB21C326D014FF0000C0EF1E0
:1007C0001C0E400142F805C04EF8007086F83C301F
:1007D0009AE7244B24489A6C4FF4806542F08002DB
:1007E0004FF080470A26276026719A64C0F880512E
:1007F0009A6C256822F080029A642EE7A16001912C
:10080000FFF778FE1B4B01991B689BE726680025C4
:1008100006F10C0303F0704000F10070C3F3130302
:1008200001271C305B01C75035712368D2B21A70A2
:10083000226802F10C0002F1300300F0704703F06F
:10084000704607F10077C0F3130006F10076C3F39A
:1008500013031C3740011C365B013D50F55054E733
:10086000000001400080034000E100E05409002046
:100870002800002024000020940900200268137A38
:1008800003F00F030C2B0AD8DFE803F007090E1260
:100890006D090A09090909096D00836A1BB97047C6
:1008A000C369002BFBD01847436A002BF7D01847C9
:1008B000283202F07043C2F31302520103F10071B7
:1008C000895810B511F0FF0F044609D0C16A39B13B
:1008D000884723682833C3F31302520103F070439F
:1008E0001A4402F100735B6813F0FF0F0BD0236B07
:1008F0004BB1204698472268283202F07043C2F379
:10090000130203EB421202F100739B6813F0FF0F16
:100910000BD0636B4BB1204698472268283202F017
:100920007043C2F3130203EB421202F10073DB685F
:1009300013F0FF0F0BD0A36B4BB1204698472268F2
:10094000283202F07043C2F3130203EB421202F1A9
:100950000072136913F0FF0F09D0E36B3BB120461F
:10096000BDE810409FE7036A002B98D0184710BDE0
:100970001E4B984203D01E4B984200D0704701692D
:100980000029FBD04269002AF8D030B40468457BC6
:10099000237DDBB21D4313F0200F4573836911D013
:1009A000D51A0F2D1FD91025002201E00468016916
:1009B000CB5C013223708369AA4203F10103836196
:1009C000F4D342699A420CD103680021043303F046
:1009D000704202F10072C3F3130304325B01416100
:1009E000D15030BC7047002DDED1EBE794090020D8
:1009F00054090020F8B50446FFF710FE2368134E93
:100A000003F1300103F1340201F07045383302F094
:100A1000704003F0704705F10075C1F3130100F158
:100A20000070C2F31302C3F313034FF0000E0C3532
:100A300049010830520107F100775B0145F801E0F8
:100A400040F802E047F803E06662F8BD7109000073
:100A5000114B984203D0114B984200D070470029A7
:100A6000FCD070B40E78AEB100250468427B237DC3
:100A7000DBB21A439B064273F9D54B1905F11002FC
:100A800002E09542F1D00468267013F8016F013539
:100A9000002EF6D170BC7047940900205409002044
:100AA000684620F007018D4601B50348FFF7E6FED2
:100AB000BDE801408546704794090020684620F053
:100AC00007018D4601B50348FFF7D8FEBDE8014098
:100AD000854670475409002030B4124C82B0236818
:100AE00023F004032360636803F001030193019B77
:100AF000ABB181B1451E002201E08A420BD015F84E
:100B0000013F01322361636803F001030193019BFC
:100B1000002BF2D11146084602B030BC704719468E
:100B2000F9E700BF006001400B4B10B50B4C198872
:100B3000236889B233B10A4A10689847094A0023EA
:100B400013702360084B1A46196841F001011960BF
:100B50001368DB07FCD410BDEC080020E808002077
:100B6000F4080020D808002000600140944AF8B53D
:100B700053689468DBB21C40A0071DD4E10700D481
:100B8000F8BD904E3378022B60D0052B2FD0012B6F
:100B90004ED08B4A8C4C936823F0010393602368FA
:100BA0003BB18A4A002110689847894A0023137094
:100BB000236000233370F8BD1069824E20F4FF4398
:100BC000327823F07F039DB2C0B2052A00F2BB80C9
:100BD000DFE812F090009C009C00A40063004F002E
:100BE0007C4B1A68002A40F08E80E307C8D57A4C07
:100BF000236883B9794B1B68002B00F0D1807848BB
:100C000098472060236833B96D4A0321936823F025
:100C100001039360317023686F4C002B40F0B48067
:100C2000674A0321936823F0010393603170F8BD94
:100C30006C4C23889BB2002B40F09280644B1B7855
:100C4000002B9DD0BDE8F840FFF76EBF624C2368D3
:100C5000002BF3D0624D21682868FFF73DFF236821
:100C60009842DDD223682A681B1A1044236028604A
:100C7000F8BD002DB4D1554B534F1A683B685070E6
:100C80002BB1104602219847514B3D601D70002347
:100C90003370E2077FF574AF7BE7002D2FD1524A06
:100CA0004A4913880D689BB22B4413F8013CF12B81
:100CB00000F0A5804D49138809889BB28B4206D26B
:100CC00017881388BFB201339BB2E855138013888D
:100CD000454A9BB299427FF451AF3B4F13883A6823
:100CE00099B2002AD3D028469047394A002313707E
:100CF0003B60CCE7002DCCD0F12800F09080354B44
:100D00001A68002AC5D01B68984737E7002D3FF4C2
:100D100035AF304B1A68002AF5D12FE7002DB8D037
:100D2000334B1B789842EAD12F4A00231380118855
:100D3000264D13882F68013389B29BB20425138096
:100D400078543570A5E7204D2B68002B9FD01F4AA3
:100D50000021106898471E4A002313702B6096E705
:100D6000244F21883D6889B22846FFF7B5FE2388C5
:100D70009BB298421CD30022174B22801B68002B89
:100D80003AD002233370F8BD154D21682868FFF76B
:100D9000A3FE2A6823680244181A2A602060F8BD5E
:100DA0000B4B1B78002B3FF436AFFFF7BDFE32E74D
:100DB000238805441B1A9BB23D602380F8BD00BF09
:100DC00000600140F8080020E8080020F408002036
:100DD000D8080020DC080020F0080020D0080020FF
:100DE000E4080020E0080020EC080020CC080020E7
:100DF000F9080020D408002003233370F8BD1188BF
:100E0000104F13888AB29BB23968A8541D4415F854
:100E1000010C00293FF43BAF3B68984737E70A4B8A
:100E200000271F8019881A88084D013292B21A8053
:100E30001B882D688AB29BB20421A8543170EF54EC
:100E400027E700BFDC080020EC080020F4080020A1
:100E50002C4A036890422DE9F04F1C68D3F81880A3
:100E6000D3F804C0D3F828E01F6B5E6BDD692CD08B
:100E7000254A26491346D1F84890DFF898A04FF04C
:100E8000030B026080F804B049F480690820C1F8BF
:100E90004890CAF88001886C20F4806088641168EA
:100EA00021F00041116024F001021A60C3F818809B
:100EB000C3F804C01A6842F001021A60C3F828E0BF
:100EC0001F635E63DD61BDE8F08F104A1049936CCB
:100ED000DFF8409043F400734FF0020B4FF0040A28
:100EE000016080F804B09364C9F880A1D2F84890FA
:100EF000036829F4007090640A6822F000420A60D6
:100F0000D1E700BF580A00200010014000800340D4
:100F10000010004000E100E0026830B49368DD0595
:100F20003DD40369C568AB4210D28168194401E021
:100F3000AB420BD211F8014B013354619468036149
:100F4000E405F5D5AB4201D230BC70479368DD05AE
:100F500010D4C36985699D4224D94169194401E0CF
:100F6000AB4207D211F8014B013354619468C3615D
:100F7000E405F5D5436A002BE6D0C169836999423F
:100F8000E2D3906810F48070DED1202301E0013BB1
:100F9000DAD050619168C905F9D530BC7047C56891
:100FA0000369CFE7436A002BEBD1CDE710B590F88A
:100FB000803082B0022B0CD0012B18D003689A68C5
:100FC000520604D41A6900929A685206FAD502B001
:100FD00010BD0446236803E01969626F00911AB9D5
:100FE0009A685106F8D5F2E700989047F2E7026850
:100FF00093685C06EBD4036BC16A14698B4201945D
:1010000004D2826A0199D154036B0268916801335A
:1010100049060363F0D502B010BD00BF70B5036888
:1010200082B01A6A044692071D460ED590F88020B9
:10103000022A36D0012A9A6803D190E01A690192F7
:101040009A685206FAD50222DA602A6AD60709D5CA
:1010500094F88020022A28D02046FFF75DFF2368FD
:101060000122DA602A6AD00648D42A6A51075CD481
:101070002A6A12070BD5DA6A94F8801042F0080247
:101080000229DA625CD001297FD00822DA602B6A5B
:101090009B060DD402B070BD1969626F0191002AE0
:1010A00059D19A685606F7D5CDE7A26F5A61D7E7AE
:1010B0002046FFF77BFF236A256B002B63D0236854
:1010C0000022102162626261A261E261D9609A6AC3
:1010D0000A439A62DA6A002642F00C022661204630
:1010E000DA62FFF719FFE36F266313B12946A06A9E
:1010F000984723682022DA6002B070BD2046FFF7CF
:1011000055FF236A2BB1A06A216B98472046FFF751
:1011100003FF236810219A6A012022F01002606206
:101120009A62D9602A6A5107A2D5DA6A204642F04B
:101130000402DA62FFF78CFE23680422DA6097E784
:101140001A68A16F22F47F0222F47F4242F4807277
:101150001A60596199E7019890472368A1E7500602
:101160003FF571AF226BE16A18699142019004D991
:10117000A36A01999954226B236899680132490640
:101180002263F0D55FE72368A4E7002323612046AC
:10119000FFF7C2FE236878E7F8B504460279012517
:1011A00053B224495B0902F01F02203305FA02F210
:1011B00041F823200021842201F0B2F92346656220
:1011C00004F140014FF0FF325A6308338B42FBD1E8
:1011D000194B9C4216D01948194B01469A6C154D73
:1011E00042F4806203270826206027719A64C5F8BC
:1011F00080619A6C22F480629A640B6823F0004349
:101200000B60F8BD0E4B0B499A6C0E4E42F4007207
:1012100002250420266025719A64C1F880019A6C29
:10122000216822F400729A640B6823F000430B607B
:10123000F8BD00BF00E100E0580A002000100140A6
:101240000080034000100040F0B50579012645F309
:10125000C40424F0604424F0030405F01F0504F1E5
:101260006044AE4004F56144C4F8806005684FF006
:10127000000E2F6880F880E027F001072F602F68AC
:10128000072947F002072F602F6847F001072F60FA
:101290009DF8145013D832F040770CBF42F05052F2
:1012A00042F040525B0800EBC10742F4817200EB50
:1012B000C101013B7A6381F8393081F838502660EA
:1012C000F0BD00BFF8B503791C4E5AB2012703F0F8
:1012D0001F03520902F1200E07FA03F5036846F8CE
:1012E0002E50D3F808E004461EF0040F0E4609D035
:1012F000FFF7AEFD217923684AB201F01F015209C0
:1013000007FA01F5186804EBC60420F00100186024
:10131000606B0121186094F83900B140986194F82D
:101320003800064C5860186840F001001860D86911
:101330000143D96144F82250F8BD00BF00E100E04C
:101340000279F8B553B2134F02F01F0201265B0970
:1013500003F1200E06FA02F5026847F82E50D2F883
:1013600008E004461EF0040F0F4609D0FFF770FD99
:10137000217922684BB201F01F015B0906FA01F5E1
:10138000D0690121B940034C20EA0101D16144F840
:101390002350F8BD00E100E02DE9F04F85B0BDF825
:1013A0003880814602EB0807BFB28A469B46002F71
:1013B00063D03C02D9F80000C36A43F00C03C36257
:1013C00083685B075CD40168082521F00101016096
:1013D000016821F47F0323F47F43234303604560C6
:1013E000036843F00103036083685E0604D4036965
:1013F000039383685D06FAD5002A3AD09AF8003044
:101400004361002F32D00126002331461D4608E0FB
:101410001AF8014001360131B6B2446189B2BD42C9
:1014200024D28468640610D40469AA42039408D8BC
:10143000984504D903980BF80300D9F8000001334C
:101440009BB20135013EADB2B6B2846814F480742B
:10145000E5D1032EE3D88A42DAD88F42DFD90131B1
:101460000136BD4289B2B6B24461DAD305B0BDE8F7
:10147000F08F002FFAD04261C5E74FF4807499E7EE
:1014800048460192FFF7E4FCD9F80000019A9AE778
:10149000684620F007018D4601B50348FFF7BEFD01
:1014A000BDE8014085467047580A0020684620F094
:1014B00007018D4601B50348FFF7B0FDBDE80140C7
:1014C00085467047D40900202DE9F041224CDFF811
:1014D00094E02468214D4FEA840C0CEB04064FEA9B
:1014E0008608F70108F1402606F58036BE44CEF89E
:1014F000043045447060B1606E68B2F5803F4FEAD9
:1015000016464FEA06466E601BD86B6892B21449C5
:101510001A4300236A600B616444104AA3001A4412
:101520005168E40104F1844303F5201341F4E00120
:10153000012500245160C3F8C051C3F8CC41BDE877
:10154000F081074BA2F5803201F5803100F5803043
:101550001A61D9609860DFE718090020084001404F
:10156000FC080020C0012842684620F007018D4693
:1015700079B52048204A0368204C03EB8301890099
:1015800003F52875012644F825600A445168334460
:10159000042B08BF002321F4E00151600360184BC5
:1015A0001A697AB11748016804290CBF002101317A
:1015B00001609868D9681B7DFFF786FFBDE8794018
:1015C0008546704702680C4902EB82029200114482
:1015D0004A68084C12F4E002F0D10A4D5968012023
:1015E00022602A6018700029E8D08847BDE8794059
:1015F0008546704714090020084001400000284239
:10160000FC08002018090020684620F007018D46DC
:10161000244B31B51B6813F4706F19D0224C23682A
:101620009900CA18D20102F1844202F52012D2F8C0
:1016300008223AB11D4A02205568107015B1A8471A
:10164000236899000B441A4ADB011A4453680BBB08
:10165000144B1B6813F4704F05D0144B04205A68C8
:10166000187002B19047BDE83140124A1249012377
:10167000C2F8C8318546C2F8803AC2F84834C1F889
:10168000803AC2F8C836C1F8843AC2F84839C1F87D
:10169000883A7047054B03205A681870002AD7D043
:1016A0009047D5E70040014014090020FC080020C5
:1016B000080228420000284204002842174B10B4B8
:1016C0009A6C174942F480129A649A6C01F12004D2
:1016D00042F0F07201209A6411F8012F42F3C40322
:1016E00023F0604323F0030303F1604302F01F0281
:1016F00003F5614300FA02F2A142C3F88020C3F867
:101700008021E9D1054B5DF8044B9A6C22F0F07210
:101710009A649A6C22F480129A64704700800340A5
:101720005B6700001F2803D8024B53F82030196074
:10173000704700BF7C6700000A4A0B491368002B02
:1017400008BF0B46EFF30881994203D91844814240
:1017500004D2FEE705491844884202D810601846B2
:101760007047FEE71C090020E00A002000F000207E
:10177000002A70B505460CDD0C468E18284600F090
:1017800043FF14F8012B2844094900F017FFB44225
:10179000F4D1284600F038FF064B2A1819889B78A8
:1017A000295293702946BDE870400348FFF750B9AD
:1017B000046800002C6800005409002000000000AC
:1017C0002DE9F047ADF50E7D4EAE00214FF480724D
:1017D000304600F0A5FED04B0024DC660322CF4843
:1017E0004FF46141FFF706F9CD49CC48FFF730F9D6
:1017F0000825CC48FFF7D0FC21464FF040728023EB
:101800000095C848FFF720FDC748FFF7C5FC4FF01B
:1018100000724FF480732146C3480095FFF714FD12
:10182000FFF74CFF20460521FFF77CFF0120052133
:10183000FFF778FF02200521DFF8F892FFF772FF2B
:1018400003200521FFF76EFF09259F228DF8082050
:101850000B948DF830400A9402A9C9F888400AAB6D
:101860000095B0480122FFF797FDD9F88820AF4BCB
:1018700042F00802C9F8882093E8070086E80700CC
:101880002A4635460AA93046FFF772FF4FF0010A93
:101890004FF00508FF238DF810308DF814408DF8B7
:1018A0000C8003A9C9F8884004AB52469D48CDF886
:1018B00000A0FFF771FDD9F888309D4F43F0080371
:1018C000C9F888300FCF0FC597E8070003C5130C80
:1018D00025F8022B04A952462B703046FFF748FF2B
:1018E0004346062202218DF818208DF8B5408DF868
:1018F000B6408DF8B7408DF8B4100DF1B70202F87C
:10190000013F0133852BFAD135468A4C0027C4F8B4
:10191000887006A983480097012205ABFFF73CFDBC
:10192000D4F888304FF0010843F00803C4F8883039
:101930004246C4F8887003A97A48CDF8008004AB09
:10194000FFF72AFDD4F88830DFF810E243F00803EF
:10195000C4F88830BEE80F000FC59EE80F0007C529
:101960002B803546424604A93046FFF701FFC4F8F4
:1019700088702DA9009705AB6A488422FFF70CFDFB
:10198000D4F888304FF0800843F008033946C4F893
:10199000883042460DA800F0C3FD03238DF81D706A
:1019A0008DF81E708DF81F708DF81C3007A9C4F8D3
:1019B00088700DAB5B480422CDF80080FFF7ECFC8B
:1019C000D4F888305C4F43F00803C4F888300FCF58
:1019D0000FC597E8030045F8040B0B0C25F8021B14
:1019E0002B70424630460DA9FFF7C2FED4F888306E
:1019F000524F43F00103C4F888303B681B0A099337
:101A0000099B2BB1099B013B0993099B002BF9D141
:101A1000002421464FF0040843480894FFF752FC85
:101A2000224608AB2146CDF800803F48FFF7B4FCC2
:101A300021463446424D3C48FFF782FC0FCD0FC48F
:101A40002B68424624F8023B1B0C2370304608A941
:101A5000FFF78EFE9DF8230000F0D4F904469DF8B0
:101A600022000D4600F0CEF90022364B00F030FA8D
:101A700002460B462046294600F078F804469DF8B9
:101A800021000D4600F0BEF900222F4B00F020FA95
:101A900002460B462046294600F068F804469DF8A9
:101AA00020000D4600F0AEF90022284B00F010FA9D
:101AB0000B4602462946204600F058F800F01AFC72
:101AC000044623492246304600F078FD314613484B
:101AD000FEF7BEFF204600F095F902460B460CA12A
:101AE000D1E9000100F01EFB00221A4B00F0F0F9D2
:101AF00000F028FC00F098F902460B4630461649E3
:101B000000F05CFD05483146FEF7A2FF75E700BF17
:101B1000000040E59C3092420080034054090020C0
:101B200010680000580A0020D40900203068000026
:101B30003C68000000300140786800002C00002064
:101B400090680000000070400000F040000070410C
:101B5000A468000000002040B86800005868000039
:101B600081F0004102E000BF83F0004330B54FEA4E
:101B700041044FEA430594EA050F08BF90EA020FBB
:101B80001FBF54EA000C55EA020C7FEA645C7FEA4E
:101B9000655C00F0E2804FEA5454D4EB5555B8BF71
:101BA0006D420CDD2C4480EA020281EA030382EAE2
:101BB000000083EA010180EA020281EA0303362D74
:101BC00088BF30BD11F0004F4FEA01314FF4801C47
:101BD0004CEA113102D0404261EB410113F0004F59
:101BE0004FEA03334CEA133302D0524263EB430310
:101BF00094EA050F00F0A780A4F10104D5F1200EAE
:101C00000DDB02FA0EFC22FA05F2801841F1000108
:101C100003FA0EF2801843FA05F359410EE0A5F1DC
:101C200020050EF1200E012A03FA0EFC28BF4CF00D
:101C3000020C43FA05F3C01851EBE37101F00045C3
:101C400007D54FF0000EDCF1000C7EEB00006EEBD0
:101C50000101B1F5801F1BD3B1F5001F0CD349085A
:101C60005FEA30004FEA3C0C04F101044FEA4452B1
:101C700012F5800F80F09A80BCF1004F08BF5FEA38
:101C8000500C50F1000041EB045141EA050130BD18
:101C90005FEA4C0C404141EB010111F4801FA4F1BB
:101CA0000104E9D191F0000F04BF01460020B1FA10
:101CB00081F308BF2033A3F10B03B3F120020CDA48
:101CC0000C3208DD02F1140CC2F10C0201FA0CF026
:101CD00021FA02F10CE002F11402D8BFC2F1200C8B
:101CE00001FA02F120FA0CFCDCBF41EA0C01904041
:101CF000E41AA2BF01EB0451294330BD6FEA04048A
:101D00001F3C1CDA0C340EDC04F11404C4F1200274
:101D100020FA04F001FA02F340EA030021FA04F386
:101D200045EA030130BDC4F10C04C4F1200220FADD
:101D300002F001FA04F340EA0300294630BD21FA1B
:101D400004F0294630BD94F0000F83F4801306BFE1
:101D500081F480110134013D4EE77FEA645C18BFD5
:101D60007FEA655C29D094EA050F08BF90EA020F6C
:101D700005D054EA000C04BF1946104630BD91EA64
:101D8000030F1EBF0021002030BD5FEA545C05D167
:101D90004000494128BF41F0004130BD14F58004A6
:101DA0003CBF01F5801130BD01F0004545F0FE411A
:101DB00041F470014FF0000030BD7FEA645C1ABF4F
:101DC000194610467FEA655C1CBF0B46024650EA86
:101DD000013406BF52EA033591EA030F41F40021B2
:101DE00030BD00BF90F0000F04BF0021704730B538
:101DF0004FF4806404F132044FF000054FF000010D
:101E000050E700BF90F0000F04BF0021704730B5CD
:101E10004FF4806404F1320410F0004548BF4042A2
:101E20004FF000013EE700BF42004FEAE2014FEAF7
:101E300031014FEA02701FBF12F07F4393F07F4FD2
:101E400081F06051704792F0000F14BF93F07F4F04
:101E5000704730B54FF4607401F0004521F0004147
:101E600020E700BF50EA010208BF704730B54FF0CD
:101E700000050AE050EA010208BF704730B511F0D2
:101E8000004502D5404261EB41014FF4806404F10A
:101E900032045FEA915C3FF4DCAE4FF003025FEA8C
:101EA000DC0C18BF03325FEADC0C18BF033202EB14
:101EB000DC02C2F1200300FA03FC20FA02F001FA6E
:101EC00003FE40EA0E0021FA02F11444C1E600BF0D
:101ED00070B54FF0FF0C4CF4E06C1CEA11541DBFC0
:101EE0001CEA135594EA0C0F95EA0C0F00F0DEF88B
:101EF0002C4481EA030621EA4C5123EA4C5350EA70
:101F0000013518BF52EA033541F4801143F48013C0
:101F100038D0A0FB02CE4FF00005E1FB02E506F051
:101F20000042E0FB03E54FF00006E1FB03569CF0A6
:101F3000000F18BF4EF0010EA4F1FF04B6F5007FAC
:101F400064F5407404D25FEA4E0E6D4146EB06061E
:101F500042EAC62141EA55514FEAC52040EA5E50A7
:101F60004FEACE2EB4F1FD0C88BFBCF5E06F1ED851
:101F7000BEF1004F08BF5FEA500E50F1000041EB88
:101F8000045170BD06F0004646EA010140EA020035
:101F900081EA0301B4EB5C04C2BFD4EB0C0541EA57
:101FA000045170BD41F480114FF0000E013C00F36C
:101FB000AB8014F1360FDEBF002001F0004170BD90
:101FC000C4F10004203C35DA0C341BDC04F11404A9
:101FD000C4F1200500FA05F320FA04F001FA05F235
:101FE00040EA020001F0004221F0004110EBD37002
:101FF00021FA04F642EB06015EEA430E08BF20EA2E
:10200000D37070BDC4F10C04C4F1200500FA04F3D0
:1020100020FA05F001FA04F240EA020001F0004162
:1020200010EBD37041F100015EEA430E08BF20EAD5
:10203000D37070BDC4F1200500FA05F24EEA020E1D
:1020400020FA04F301FA05F243EA020321FA04F04C
:1020500001F0004121FA04F220EA020000EBD37003
:102060005EEA430E08BF20EAD37070BD94F0000F03
:102070000FD101F00046400041EB010111F4801F37
:1020800008BF013CF7D041EA060195F0000F18BFE8
:10209000704703F00046520043EB030313F4801F24
:1020A00008BF013DF7D043EA0603704794EA0C0FDE
:1020B0000CEA135518BF95EA0C0F0CD050EA4106F4
:1020C00018BF52EA4306D1D181EA030101F0004171
:1020D0004FF0000070BD50EA410606BF1046194699
:1020E00052EA430619D094EA0C0F02D150EA0136A5
:1020F00013D195EA0C0F05D152EA03361CBF1046E6
:1021000019460AD181EA030101F0004141F0FE4184
:1021100041F470014FF0000070BD41F0FE4141F408
:10212000780170BD70B54FF0FF0C4CF4E06C1CEA08
:1021300011541DBF1CEA135594EA0C0F95EA0C0FBD
:1021400000F0A7F8A4EB050481EA030E52EA033578
:102150004FEA013100F088804FEA03334FF0805599
:1021600045EA131343EA12634FEA022245EA1115C6
:1021700045EA10654FEA00260EF000419D4208BF77
:10218000964244F1FD0404F5407402D25B084FEA24
:102190003202B61A65EB03055B084FEA32024FF4D0
:1021A00080104FF4002CB6EB020E75EB030E22BF2D
:1021B000B61A754640EA0C005B084FEA3202B6EBED
:1021C000020E75EB030E22BFB61A754640EA5C009C
:1021D0005B084FEA3202B6EB020E75EB030E22BF2C
:1021E000B61A754640EA9C005B084FEA3202B6EB2D
:1021F000020E75EB030E22BFB61A754640EADC00EC
:1022000055EA060E18D04FEA051545EA16754FEA4D
:1022100006164FEAC30343EA52734FEAC2025FEA6B
:102220001C1CC0D111F4801F0BD141EA00014FF0FA
:1022300000004FF0004CB6E711F4801F04BF0143CB
:102240000020B4F1FD0C88BFBCF5E06F3FF6AFAEE7
:10225000B5EB030C04BFB6EB020C5FEA500C50F177
:10226000000041EB045170BD0EF0004E4EEA1131FA
:1022700014EB5C04C2BFD4EB0C0541EA045170BD01
:1022800041F480114FF0000E013C90E645EA060E45
:102290008DE60CEA135594EA0C0F08BF95EA0C0F73
:1022A0003FF43BAF94EA0C0F0AD150EA01347FF4BB
:1022B00034AF95EA0C0F7FF425AF104619462CE792
:1022C00095EA0C0F06D152EA03353FF4FDAE1046F5
:1022D000194622E750EA410618BF52EA43067FF446
:1022E000C5AE50EA41047FF40DAF52EA43057FF4D6
:1022F000EBAE12E74FEA410212F5001215D211D5EA
:102300006FF47873B3EB625212D94FEAC12343F0F2
:10231000004343EA505311F0004F23FA02F018BF74
:10232000404270474FF00000704750EA013005D13D
:1023300011F0004008BF6FF0004070474FF0000000
:10234000704700BF4FEA4102B2F1E04324BFB3F54A
:10235000001CDCF1FE5C0DD901F0004C4FEAC0021C
:102360004CEA5070B2F1004F40EB830008BF20F000
:102370000100704711F0804F21D113F13872BCBFBA
:1023800001F00040704741F480114FEA5252C2F10F
:102390001802C2F1200C10FA0CF320FA02F018BF58
:1023A00040F001004FEAC1234FEAD32303FA0CFCAB
:1023B00040EA0C0023FA02F34FEA4303CCE77FEA3A
:1023C000625307D150EA01331EBF4FF0FE4040F484
:1023D0004000704701F0004040F0FE4040F4000033
:1023E000704700BF70B50F4E0F4D761BB61018BF6B
:1023F000002405D0013455F8043B9847A642F9D192
:102400000A4E0B4D04F028FB761BB61018BF0024B3
:1024100006D0013455F8043B9847A642F9D170BD67
:1024200070BD00BF706A0000706A0000786A00002A
:10243000706A0000844641EA000313F0030349D1A7
:10244000403A23D30B6803604B6843608B6883601A
:10245000CB68C3600B6903614B6943618B6983611E
:10246000CB69C3610B6A03624B6A43628B6A836206
:10247000CB6AC3620B6B03634B6B43638B6B8363EE
:10248000CB6BC36340304031403ADBD230320BD3A8
:102490000B6803604B6843608B688360CB68C360E4
:1024A00010301031103AF3D20C3205D351F8043BFE
:1024B00040F8043B043AF9D2043208D0D2071CBFDA
:1024C00011F8013B00F8013B01D30B880380604603
:1024D000704700BF082A13D38B07B1D010F0030355
:1024E000AED0C3F10403D21ADB071CBF11F8013BC5
:1024F00000F8013BA4D331F8023B20F8023B9FE7F0
:10250000043AD9D3013A11F8013B00F8013BF9D262
:102510000B7803704B7843708B78837060467047FC
:1025200070B4840746D0541E002A41D0CDB2034671
:1025300002E0621EE4B3144603F8015B9A07F8D187
:10254000032C2ED9CDB245EA05250F2C45EA0545C9
:1025500019D9264603F11002103E0F2E42F8105CE6
:1025600042F80C5C42F8085C42F8045C02F110028C
:10257000F2D8A4F1100222F00F0204F00F0410327E
:10258000032C13440DD91E462246043A032A46F86A
:10259000045BFAD8221F22F003020432134404F031
:1025A00003042CB1C9B21C4403F8011BA342FBD1A4
:1025B00070BC704714460346C2E700BF0EB4F0B5C6
:1025C00006464FF6FF7E9CB021AC54F8042B0D4913
:1025D00023466FF0004508684FF4027702A902967F
:1025E00006960194ADF816E0ADF8147004950795C1
:1025F00000F038F8029B00221A701CB0BDE8F040D1
:1026000003B070475804002020F0030110F00300CD
:10261000C0F1000051F8043B00F1040C4FEACC0C6F
:102620006FF000021CBF22FA0CF213434FF0010CB2
:102630004CEA0C2C4CEA0C4CA3EB0C0222EA0302F1
:1026400012EACC1204BF51F8043B0430F4D0C2F1BA
:10265000000102EA0102B2FA82F2C2F11F0200EBAB
:10266000D20070472DE9F04FC1B089460A920E930F
:10267000089002F081FA036818461793FFF7C4FF29
:10268000B9F80C3018901C0604D5D9F81030002B7E
:1026900001F0C28030AF3C464E46002313931693A0
:1026A00019930B93259324932397149315930A9DC1
:1026B0002B78002B00F0A980252B02D1A5E0252B3B
:1026C00003D015F8013F002BF9D10A9BEB1A73B127
:1026D000249A259901320A981944072A84E80900A6
:1026E0002591249272DC08340B9A1A440B922B78B1
:1026F000002B00F0E28700231A46691C6D788DF8E4
:102700006F300C9307934FF0FF3A4B1CA5F120015B
:10271000582900F2EA83DFE811F06D02E803E803CC
:10272000D102E803E803E803E803E803E803BC0296
:102730000D02E803F4011102E803D8027B027B02D8
:102740007B027B027B027B027B027B027B02E80333
:10275000E803E803E803E803E803E803E803E80321
:10276000E8038A02DF02E803DF02E803E803E80384
:10277000E803CB03E803E8032F03E803E803E803D7
:10278000E803E8034D03E803E8036703E803E8030D
:10279000E803E803E803E803E803E803E803E803E1
:1027A00082032B02DF02DF02DF02CA022B02E803F0
:1027B000E803B202E803D203FB0119037402E80341
:1027C000A303E8037A00E803E803470208983146C8
:1027D00023AA079302F0E4FF50B93C46079B83E726
:1027E0000898314623AA02F0DBFF002800F085811B
:1027F000B146B9F80C3013F0400F0B9B18BF4FF0E7
:10280000FF33184641B0BDE8F08F0A9D6FE70A9389
:10281000079B980640F1D7820E9B03F1070929F028
:10282000070303F10802D3E900890E920123002275
:102830009446CDF844A08DF86F20BAF1000F03DB69
:10284000079A22F08002079258EA090240F06F834B
:10285000BAF1000F00F07484012B00F07283022B98
:1028600000F0C28439464FEAD80242EA49724FEA80
:10287000D90008F0070381469046303358EA090230
:1028800001F8013DEFD1079A1091D20700F17F8541
:102890007B1A0D930D9A53469245B8BF1346099380
:1028A00000231293BCF1000F02D0099B013309935E
:1028B000079B13F002030F9302D0099B0233099385
:1028C000079B13F0840940F02F830C9B099AC2EBFD
:1028D0000308B8F1000F40F32783B8F1100F2599D2
:1028E000249ADFF870A529DD53464FF0100BC2463D
:1028F000A8461D4606E0AAF1100ABAF1100F04F12D
:10290000080417DD01321031072A2591249284E84A
:102910002008F0DD0898314623AA02F041FF002884
:102920007FF466AFAAF1100ABAF1100F3C46259960
:10293000249AE7DC2B464546D0469A46013208EBFE
:10294000010B072ACDF894B02492C4F800A0C4F873
:10295000048000F3DE829DF86FC00834BCF1000FE4
:102960000FD0249B0BF1010B01330DF16F010122FC
:10297000072BCDF894B0249384E8060000F3FD8380
:1029800008340F9B73B1249B0BF1020B01331CA97C
:102990000222072BCDF894B0249384E8060000F3BC
:1029A000F9830834B9F1800F00F03483119B0D9A3C
:1029B000C2EB030ABAF1000F3CDDBAF1100F249A02
:1029C000DFF894942BDD49465B46A9464FF010088A
:1029D000DDF820B00D4606E0AAF1100ABAF1100F9A
:1029E00004F1080417DD01321033072A25932492DD
:1029F00084E82001F0DD5846314623AA02F0D0FEDB
:102A000000287FF4F5AEAAF1100ABAF1100F3C4687
:102A1000259B249AE7DC9B462B464D46994601327E
:102A2000D344072ACDF894B0249284E8000600F33A
:102A300098830834079BD90500F18F82249B0D9958
:102A40000133109A8B44072BCDF894B0226061605B
:102A5000249300F3B8830834079B5A0741D50C9B95
:102A6000099A9D1A002D3CDD102D249BDFF8E4A36C
:102A700023DD4FF010085A46DDF8209004E0103DA9
:102A8000102D04F1080417DD01331032072B2592B5
:102A90002493C4F800A0C4F80480F0DD4846314611
:102AA00023AA02F07DFE00287FF4A2AE103D102D77
:102AB0003C46259A249BE7DC93460133AB44072B25
:102AC000CDF894B02493C4F800A0656009DD08989F
:102AD000314623AA02F064FE00287FF489AEDDF8B7
:102AE00094B00B9B099A0C998A42ACBF9B185B1857
:102AF0000B93BBF1000F7FF473AE002324933C468D
:102B0000D5E51946079840F0040007901D78FCE5CC
:102B10000A93079B13F0200300F038810E9B03F10A
:102B2000070929F0070303F10802D3E900890E928F
:102B300000237CE61D7819462B22E6E51D78591CFA
:102B40002A2D00F0E587A5F1300009280B464FF04B
:102B5000000A3FF6DBAD13F8015B0AEB8A0A00EBD3
:102B60004A0AA5F130000928F5D94AEAEA7ACDE502
:102B70000A93079B8DF86F20980662D50E9B03F190
:102B8000070929F00709D9E9002309F1080190464E
:102B900099460E91002A73F1000364DB9DF86FC023
:102BA000CDF844A0012348E60A93A74B8DF86F2087
:102BB0001693079B9B0640F120810E9B03F10709AA
:102BC00029F0070303F108020E92D3E90089079B5D
:102BD000D90740F1228158EA090300F01E81079AC3
:102BE000302342F002028DF870308DF87150079258
:102BF00002231CE6002A40F0E5841D7819462022B5
:102C000083E5079941F0200107911D7819467CE57D
:102C1000A5F13000002113F8015B01EB810100EB0D
:102C20004101A5F130000928F5D90C916EE50A9310
:102C3000079B8DF86F2043F010030793079B9806BE
:102C40009CD4079BD90640F1C1840E9A13461B6899
:102C500004320E924FEAE3791A4698464B46002A10
:102C600073F100039ADA4FF02D0CD8F1000869EBEC
:102C700049098DF86FC0CDF844A00123DDE51D782A
:102C800007996C2D00F0258541F010010791194638
:102C90003BE50E9D296808460C912946002801F164
:102CA0000401C0F21D850E911D7819462DE5079986
:102CB00041F0400107911D78194626E5079941F03A
:102CC000010107911D7819461FE5079941F0800120
:102CD00007911D78194618E50A93079B8DF86F2018
:102CE00013F0080F0E9BD34603F1070900F0378459
:102CF00029F0070303F108020E921A685B68149228
:102D000015931599149802F00DFD01281599149842
:102D100040F00B840022002303F020FA002840F04A
:102D200039869DF86FC0079B484A23F080030793BC
:102D30001346DFF828E10321472DD8BF7346002052
:102D40000991119010930D911290ABE50E9907988F
:102D50000A9330230A688DF870303B4B782540F099
:102D600002000431169307900E9190464FF000092F
:102D70008DF8715002235AE50A93079B43F0100324
:102D80000793079B13F020037FF4C8AE079A12F055
:102D9000100240F00A83079B13F0400300F0058304
:102DA0000E9913460A460432B1F800804FF000092C
:102DB0000E923CE50A93079B43F010030793079B91
:102DC00098063FF529AD079BD90600F1F782079BCE
:102DD0005A0640F1F3820E9A4FF00009B2F80080D3
:102DE000043201230E9222E50A93194B8DF86F20CD
:102DF0001693079B9B063FF5E0AE079BD80640F174
:102E0000BB830E9A13461B6804329846079B0E92AA
:102E1000D9074FF000093FF5DEAE022307E50E9813
:102E20000A93026800238DF89820024601219C46EF
:102E300004328DF86F301193129326AB09910E92E4
:102E40000D91109334E500BF1C690000FC68000080
:102E500008690000E8680000D8680000F868000011
:102E60000E9A0A9313684FF0000B10938DF86FB011
:102E700002F10409002B00F05885BAF1000F1098F8
:102E8000C0F2EA845946524602F000F9002800F0E8
:102E90008985109BCDF844B0C31A0D93CDF83890B6
:102EA00023EAE3730993CDF848B09DF86FC0F9E4C5
:102EB000079941F0080107911D78194625E40A9306
:102EC000079B8DF86F209A0640F165830E9A134692
:102ED00004330E930B9B11684FEAE3791A46984628
:102EE0004B46C1E90023FFF7E2BB0A938DF86F2040
:102EF000002D00F0E283002301229C468DF86F3004
:102F00001193129326AB09928DF898500D9210935D
:102F1000CEE40898314623AA02F042FC00287FF450
:102F200067AC3C469DF86FC0DDF894B016E5012B08
:102F30007FF495ACB9F1000F08BFB8F10A0F80F02B
:102F400006820DF5807B08F130080BF8418DCBEB44
:102F500007030D93CDF840B09CE4652D40F3A080AD
:102F6000149815990022002303F0EEF8002800F0D1
:102F70005481249BC14901330BF1010B0122072B22
:102F8000CDF894B0249384E8060000F33E8308341F
:102F90001D9B139A934203DB079BDA077FF55CAD19
:102FA000249B18990133179A8B44072BCDF894B0C2
:102FB00022606160249300F31A840834139B5D1E21
:102FC000002D7FF749AD102D249BDFF8B49240F31C
:102FD000EF804FF010085A46DDF820A004E00834D6
:102FE000103D102D40F3E38001331032072B259262
:102FF0002493C4F80090C4F80480F0DD50463146B4
:1030000023AA02F0CDFB00287FF4F2AB3C46259AC0
:10301000249BE5E70C9B099AC2EB030ABAF1000F67
:103020007FF7C4ACBAF1100F249ADFF854922BDD6D
:1030300049465B46A9464FF01008DDF820B00D4622
:1030400006E0AAF1100ABAF1100F04F1080417DD26
:1030500001321033072A2593249284E82001F0DD01
:103060005846314623AA02F09BFB00287FF4C0ABF0
:10307000AAF1100ABAF1100F3C46259B249AE7DC0E
:103080009B462B464D4699460132D344072ACDF83C
:1030900094B0249284E8000600F33A82083485E470
:1030A000139B249D012B40F3FC81013510990BF1FA
:1030B00001030122072D259321602495626000F30E
:1030C0000E8208341899013503EB010B179B072D6D
:1030D000CDF894B024952360616000F30C8208342D
:1030E000002314981599002203F02EF8139B002852
:1030F00040F0E380109A013B013501329B44072DDB
:1031000022602495CDF894B0636000F313810834F5
:10311000199A013593441FAB072DCDF894B024952F
:10312000626023607FF797AC0898314623AA02F0CB
:1031300037FB00287FF45CAB3C46DDF894B08BE4B1
:10314000002B4CD1079BD80749D50DF5807B302348
:103150000BF8413DCBEB07030D93CDF840B0FFF7E3
:1031600099BB0898314623AA02F01AFB00287FF485
:103170003FAB3C46DDF894B05CE40898314623AAA6
:1031800002F00EFB00287FF433AB3C46DDF894B030
:10319000FFF7F7BB0898314623AA02F001FB00288D
:1031A0007FF426AB3C46DDF894B0FFF7FBBB9346BB
:1031B0000133AB44072BCDF894B02493C4F80090AE
:1031C00065607FF748AC0898314623AA02F0E8FA18
:1031D00000287FF40DABDDF894B03C463CE4CDF81C
:1031E00034A01097FFF756BBBB4616984FEA18134A
:1031F00043EA09734FEA191108F00F02894698460D
:10320000835C0BF8013D58EA0903EFD15B46CDF82A
:1032100040B0FB1A0D93FFF73DBB1D9D002D40F301
:103220000082139A129913468A42A8BF0B461D4684
:103230001099002D01EB020A0CDD0A46249BAB44D9
:103240000133072BCDF894B084E82400249300F3D5
:1032500048830834129B002DA8BF5B1B002B1D4622
:1032600040F3C180102D249BDFF8149040F3C081FF
:103270005A464FF01008DDF820B008E03869000029
:10328000D86800000834103D102D40F3B0810133A0
:103290001032072B25922493C4F80090C4F80480C0
:1032A000F0DD5846314623AA02F07AFA00287FF46E
:1032B0009FAA3C46259A249BE5E703F1FF38B8F125
:1032C000000F7FF725AFB8F1100FDFF8489525DD27
:1032D0005B464FF0100ADDF820B006E0A8F11008B8
:1032E000B8F1100F04F1080417DD01351033072D74
:1032F0002593249584E80006F0DD5846314623AA3C
:1033000002F04EFA00287FF473AAA8F11008B8F171
:10331000100F3C46259B249DE7DC9B460135C344AA
:10332000072DCDF894B02495C4F80090C4F804801B
:103330007FF7EDAE0898314623AA02F031FA002853
:103340007FF456AADDF894B0249D3C46E0E6BB46E7
:10335000CDF824C0404649460A22002302F026FF49
:103360003032404649460BF8012D00230A2202F074
:103370001DFF8046894658EA0903EBD15B46FB1ADC
:10338000DDF824C0CDF840B00D93FFF783BA302BA1
:10339000109B3FF43EAF013B1A461093BA1A3023FC
:1033A0000D9201F8013CFFF775BA0E994FF0000934
:1033B0000A6804310E919046FFF739BA0E9901233D
:1033C0000A6804310E9190464FF00009FFF72FBABA
:1033D0000898314623AA02F0E3F900287FF408AAEE
:1033E0003C46DDF894B0109A12991D9B0A44904611
:1033F000139A934246DB079AD00743D4139AC8EB3B
:103400000A05D31A9D42A8BF1D46002D0CDD249A43
:10341000AB440132072ACDF894B0C4F8008065604F
:10342000249200F396820834002DB4BF1D465D1B24
:10343000002D7FF711AB102D249BDFF8D8937FF779
:10344000B7AE4FF010085A46DDF820A004E008346B
:10345000103D102D7FF7ABAE01331032072B2592B4
:103460002493C4F80090C4F80480F0DD504631463F
:1034700023AA02F095F900287FF4BAA93C46259AC0
:10348000249BE5E7249A1898013217998344072A68
:10349000CDF894B021606060249200F33982083442
:1034A000ACE7079BD9073FF500AE0135109A0BF149
:1034B000010B0123072DCDF894B0226024956360A1
:1034C0007FF725AE0898314623AA02F069F9002853
:1034D0007FF48EA93C46DDF894B0249D18E6089848
:1034E000314623AA02F05CF900287FF481A93C460A
:1034F000259B249DE6E50898314623AA02F050F961
:1035000000287FF475A93C46DDF894B0249DE7E5DA
:103510000898314623AA02F043F900287FF468A9ED
:103520003C46DDF894B0FFF741BA02F0FBF8002802
:1035300040F0DD80B44AB54B8646472DD8BF1A46C9
:1035400011900798032120F0800009910790CDF891
:1035500048E010920D919DF86FC0FFF7A3B929F0D4
:103560000709D9F800301493D9F80430159309F1FC
:1035700008030E93FFF7C5BB079B0E9A13F0400F8D
:1035800013463FF440AC0433B2F800804FF000091A
:103590000E93FFF71CBB079BDB060BD4079B5D0656
:1035A00008D50E9A136804320E92BDF82C201A80AA
:1035B000FFF77DB80E9A136804320E920B9A1A60C8
:1035C000FFF775B819461D78FFF79FB8079B0E9A4D
:1035D00013F0400F13463FF43AABB2F900800433C6
:1035E0004FEAE8790E9342464B46FFF7D3BA93462B
:1035F0000133AB44072BCDF894B02493C4F800906A
:1036000065603FF7E5AE0834EDE60898314623AA39
:1036100002F0C6F800287FF4EBA83C46DDF894B031
:10362000B6E4249B7A4901330BF1010B0122072BED
:10363000CDF894B0249384E8060000F3FD800834AC
:103640002DB9139B1BB9079BDB077FF505AA249BAC
:1036500018980133179A0BEB0001072B2591226074
:103660006060249300F3F48104F108026D42002DA0
:1036700040F30781102DDFF89C9140F33E81102428
:10368000DDF8208004E00832103D102D40F3358134
:1036900001331031072B25912493C2F80090546018
:1036A000F1DD4046314623AA02F07AF800287FF483
:1036B0009FA83A462599249BE6E7259BB146002B17
:1036C0003FF497A80898314623AA02F069F8FFF75B
:1036D00090B841F0200107915D78591CFFF715B8AB
:1036E0000C980E9140420C901946FFF70BBA25F04A
:1036F0002003BAF1FF3F0D9300F0AB80472B05D1BB
:10370000BAF1000F14BFD3464FF0010B079B43F4EF
:1037100080731193159BB3F1000A149B0993B7BFF3
:103720005346002303F1004A2D23662D0F9300F02A
:10373000B980462D00F0B6800D9B0220452B14BFAA
:10374000D9460BF101091DA98DE8010202911EA8BD
:1037500021A90390099A53460491089800F0A4FA0D
:10376000672D109002D0472D40F0AC80079BDB07FF
:1037700040F19681109B03EB0908099851460022FD
:10378000002302F0E1FC002840F00A81219B9845CB
:1037900006D930215A1C21921970219B9845F9D8DD
:1037A000109A9B1A13930D9B472B1D9B00F0EB80E7
:1037B000652D40F30581662D129300F06481139B03
:1037C000129A934200F35181079BD90700F1888137
:1037D00022EAE2730D920F9A002A40F0C980099301
:1037E000119B9DF86FC007931192FFF75BB8089883
:1037F000314623AA01F0D4FF00287EF4F9AF3C46FD
:10380000DDF894B0FFF7DABB04690000006900003E
:1038100038690000D86800000898402101F0B0F92C
:10382000C9F80000C9F81000002800F08681402384
:10383000C9F81430FEF72EBF0898314623AA01F0CC
:10384000AFFF00287EF4D4AF3C461D9DDDF894B058
:10385000F6E64FF0060B59E7CDF844B0FEF7D4FE7C
:10386000CDF838900D900346FFF71ABB0898314603
:1038700023AA01F095FF00287EF4BAAF3A462599B5
:10388000249B139C013301EB040B1099072BCDF8FB
:1038900094B02493116054603FF795AC02F1080492
:1038A000FFF7DAB803201DA98DE8010802911EA8D0
:1038B00021A90390099A53460491089800F0F4F95D
:1038C000D9461090109B03EB09080D9B462B7FF403
:1038D00054AF109B1B78302B00F0E4801D9B984464
:1038E0004BE70898314623AA01F05AFF00287EF4DE
:1038F0007FAF3C46DDF894B0ACE401332944072B9C
:1039000025912493C2F800905560AFDC0832B8E7E7
:103910000898314623AA01F043FF00287EF468AFDF
:103920003C461D9BDDF894B068E55346062B28BF46
:1039300006230D9323EAE373DDF840C00993844B1B
:10394000CDF83890CDF844C0CDF848C01093FEF7BC
:10395000A9BF0898314623AA01F022FF00287EF46F
:1039600047AF1D9B139ADDF894B0D31A3C465BE534
:103970000993119B4FF02D0C079300238DF86FC016
:103980001193FEF792BFDA1C19DB9B4517DB1293EC
:10399000672514E72D239C468DF86F30FFF7C3B9D8
:1039A0004346FDE62AEAEA731190CDF8389012906A
:1039B0009DF86FC00993CDF834A0FEF773BF023DA8
:1039C000013B002B1D93BABF5B422D222B22092BFA
:1039D0008DF87C508DF87D207ADD0DF18B0001464D
:1039E0005C4A82FB032EDA17C2EBAE0E0EEB8E02A0
:1039F000A3EB420273463032092B01F8012DEFDCB4
:103A00000A4630335FFA83FE02F801ED904240F23D
:103A10009B800DF17E020B4601E013F801EB83421F
:103A200002F801EBF9D123AB5B1A0DF17E021344CE
:103A30001FAA9B1A139A1993012A13440D935EDD52
:103A40000D9B002201330D93129223EAE373C2E629
:103A50000898314623AA01F0A3FE00287EF4C8AEE0
:103A60003A461D9D2599249B00E6129B002BD8BF4A
:103A7000C3F10208139BC8BF4FF0010843440D93E4
:103A800023EAE373A7E6002B30DDBBF1000F17D16B
:103A9000079BDB0714D4129A22EAE2730D929AE68E
:103AA000219B7DE6099851460022002302F04CFB41
:103AB00000287FF413AFC9F101031D9398445CE61D
:103AC000129B0BF1010843440D9323EAE37382E652
:103AD000303330228DF87F308DF87E2020ABA7E781
:103AE000129B01330D9323EAE37374E6BBF1000FDD
:103AF0001DD1079BD8071AD401230D936BE6079BB2
:103B000013F001039CD112930D9B23EAE37362E649
:103B10000E9D2846D5F800A00430BAF1000F5D785C
:103B20000E90BEF6F2AD4FF0FF3AFEF7EEBD0BF190
:103B300002030D9323EAE3734DE6089A0C23136006
:103B40004FF0FF30FEF75EBE0DF17E0370E700BF61
:103B50003069000067666666024B13B1024800F0E8
:103B600005B87047000000004D4B000001460020E2
:103B70000246034601F096BE2DE9F04F03690F6936
:103B800083B09F4200F38B80013F01F1140600F1E6
:103B9000140A56F827305AF827200133B2FBF3F8FD
:103BA000BB00009306EB030953440193B8F1000FE7
:103BB0003DD000231C46B446D6461A465CF804BBEA
:103BC000DEF800501FFA8BF34FEA1B4B03FB082271
:103BD0000BFB08F303EB124392B2A41A1FFA83FB08
:103BE000AAB22244CBEB154404EB224492B242EA3F
:103BF0000442E1454EF8042B4FEA24444FEA1342B5
:103C0000DCD2009B5AF803308BB9019C231F9A45E4
:103C10000CD254F8043C4BB9A4F1080302E01A6832
:103C2000043B1AB99A4507F1FF37F8D307610446F8
:103C300001F08EFC00282EDB00235546194608F1C2
:103C4000010856F8042B2B6890B2081A120C99B28E
:103C5000C2EB1343421803EB224392B242EA0342FF
:103C6000B14545F8042B4FEA2341EAD25AF8272000
:103C70000AEB87037AB91A1F92450BD253F8042C2A
:103C800042B9083B02E01A68043B1AB99A4507F1A9
:103C9000FF37F8D32761404603B0BDE8F08F00201E
:103CA00003B0BDE8F08F00BF2DE9F04F016C99B073
:103CB0000446CDE90223259D41B1426C0123934086
:103CC0008B604A6001F058FA00232364DDE9022387
:103CD000002B994636DB00232B60A54B1A4609EAD8
:103CE0000303934217D0DDE9026700220023304628
:103CF000394602F029FA804600282BD0249A012365
:103D00001360269B002B00F0CB809A481860013886
:103D100019B0BDE8F08F42F20F73249A1360029B32
:103D2000002B00F0A6809448269B002BF0D0C3788F
:103D3000002B00F0B78000F10803269A136019B039
:103D4000BDE8F08F039A012322F000492B60CDF8E3
:103D50000C90C2E717AA16AB8DE80C00204632463D
:103D60003B4601F08BFC5FEA1955834640F08A80A0
:103D7000DDF85880179D6FF4826345449D42C0F280
:103D800095827E4A05F21243521B09FA02F9029A01
:103D900022FA03F049EA0000FEF724F80123013D6E
:103DA000A1F1F87112930022754BFDF7DDFE6AA3B5
:103DB000D3E90023FEF78CF869A3D3E90023FDF7CC
:103DC000D5FE064628460F46FEF71CF866A3D3E943
:103DD0000023FEF77DF802460B4630463946FDF7D4
:103DE000C5FE06460F46FEF785FA394605900022C5
:103DF0003046002302F0B2F9002840F0A481059B70
:103E0000162B00F29D81DDE9022305985D4901EB47
:103E1000C001D1E9000102F0BFF9002800F0508292
:103E2000059B013B059300230C93C5EB0805B5F1F9
:103E3000010A00F19F8100230693059B002BC0F22D
:103E400090819A440B9300230993229B092B2BD832
:103E5000052B40F37786043B22930025229B023BEF
:103E6000032B00F25586DFE813F0CF03C103B00245
:103E70006A06414B444AC9F31300002814BF184690
:103E8000104651E7C7F3130343F07F51CDF8488044
:103E90003046A5F2FF3541F44011DDF8588082E745
:103EA0003A4835E7C31C48E7002161642046229167
:103EB00001F03AF94FF0FF33229A07930D93012353
:103EC0000890239220640A93179B002BC0F2D080A5
:103ED000059A0E2A00F3CC802A4B03EBC203D3E9E8
:103EE0000089239B002BC0F29283DDE902674246E2
:103EF0004B4630463946FEF715F9FEF7FBF9824688
:103F0000FDF780FF42464B46FDF7E2FF02460B46B7
:103F100030463946FDF728FE079E089F0AF1300516
:103F2000012E3D7002460B4607F1010562D00022CA
:103F3000174BFDF7CDFF0022002306460F4602F087
:103F400003F9002840F08180CDF808B0DDF820A00A
:103F5000DDF81CB006942AE061436F63A787D23F67
:103F6000B3C8608B288AC63FFB799F501344D33F68
:103F70000000F07F39690000486900000EFCFFFF77
:103F80000000F83F586900003C69000038690000F3
:103F9000000024400022C84BFDF79AFF00220023B6
:103FA00006460F4602F0D0F8002840F0E083424673
:103FB0004B4630463946FEF7B5F8FEF79BF9044606
:103FC000FDF720FF42464B46FDF782FF02460B46B7
:103FD00030463946FDF7C8FD04F1300605F8016B9F
:103FE000CAEB0506B34502460B46D3D1A246DDF81F
:103FF00008B0069C10461946FDF7B8FD06460F4668
:104000004046494632463B4602F0A8F848B9404689
:10401000494632463B4602F097F8B0B11AF0010F1C
:1040200013D015F8018C6B1E089904E08B4200F048
:10403000458413F8018DB8F1390F03F101051A46D3
:10404000F4D008F10103DBB213702046594601F0A9
:1040500093F80022059B2A70249A01331360269B53
:10406000002B00F04A8308981D6019B0BDE8F08F5E
:104070000A9A002A00F08480229A012A40F30983D8
:10408000079B5F1E099BBB42C0F2AF83DF1B079BF0
:10409000002BC0F2A584069D079B069A20461A4471
:1040A000012106929A4401F001F9064665B1BAF180
:1040B000000F09DDAA455346A8BF2B46069AED1A04
:1040C000D21A0692C3EB0A0A099B002B1ADD0A9B3F
:1040D000002B00F08383002F10DD31463A46204646
:1040E00001F08EF906465A463146204601F0E8F8BE
:1040F00080465946204601F03FF8C346099BDA1B2B
:1041000040F0A7822046012101F0D0F80B9B8046A9
:10411000002B39DD01461A46204601F071F9229B39
:104120008046012B40F39B824FF00009D8F81030F5
:1041300008EB8303186901F06BF8C0F120002DE053
:1041400001230C9371E60598FDF75CFE32463B4671
:1041500001F0FAFF00287FF452AE059B013B059366
:104160004DE6069A059BD21A5B42099300230692FC
:104170000B936AE6CAF1000306934FF0000A5CE66F
:10418000099F069D0A9E91E7229B012B40F3B8826E
:104190004FF000090B9B002BC8D10120504410F0B8
:1041A0001F0000F08180C0F12003042B40F3C18484
:1041B000C0F11C00069B0544034406938244069B01
:1041C000002B05DD59461A46204601F069F9834661
:1041D000BAF1000F05DD41465246204601F060F974
:1041E00080460C9B002B40F06D82079B002B40F318
:1041F0009B820A9B002B71D1DDF82090079F4D46D2
:1042000004E05946204600F0C1FF83465846414627
:10421000FFF7B2FC303005F8010BC9EB0503BB42D8
:104220004FF00A024FF00003EBDB089B079A84462D
:10423000012AACBF9B1801331D464FF0000A5946B6
:1042400001222046CDF808C001F02AF941468346F4
:1042500001F07EF90028DDF808C040F3FC8215F873
:10426000012C6B1E089904E08B4200F0798213F850
:10427000012D392A03F10105F6D001321A704146A9
:10428000204600F079FF002E3FF4DFAEBAF1000FB8
:1042900005D0B24503D05146204600F06DFF3146AF
:1042A000204600F069FFD0E61C2083E7034B029A0A
:1042B0005B1B02FA03F06FE500002440EEFBFFFFFA
:1042C0000C90B2E53146002320460A2200F05EFF42
:1042D0000D9B0646002B40F315840793002D05DD4A
:1042E00031462A46204601F0DBF80646B9F1000FB8
:1042F00040F0EE82B146089A079B1746013BD3185F
:104300000993029B03F001030A9341465846FFF7C5
:1043100033FC31460546584601F01AF94A468246B2
:104320004146204601F038F9C268034605F1300CD9
:10433000002A40F0BD8119465846CDF81CC00693AE
:1043400001F006F9069B02901946204600F014FF82
:10435000029ADDF81CC02AB9229B1BB90A9B002BCC
:1043600000F0B083BAF1000FC0F2578205D1229B52
:104370001BB90A9B002B00F05082002A00F3BC827C
:10438000099B07F1010A9F4287F800C0554600F0DB
:10439000BF8259460A220023204600F0F7FE4E4510
:1043A0008346314620464FF00A024FF0000300F0EA
:1043B000798100F0EBFE494606460A22204600239A
:1043C00000F0E4FE574681469FE701230A93239BB2
:1043D000002B40F319821F461E460D9307930021C0
:1043E000172F61640AD9012204235B0003F1140032
:1043F0008742114602F10102F7D26164204600F0C3
:1044000093FE0E2E089020643FF65EAD002D3FF423
:104410005BADDDE902230599CDE90E23002940F3C8
:104420002682BA4B01F00F020D1103EBC203E9061D
:10443000D3E9006740F1E181DDE90E01B44B05F0FD
:104440000F05D3E90823FDF76DFECDE902014FF01A
:1044500003088DB130463946DFF8B492EA0705D536
:10446000D9E90023FDF734FD08F101086D1009F1C9
:104470000809F3D106460F46DDE9020132463B4604
:10448000FDF750FECDE902010C9B43B1DDE90201CD
:104490000022A04B01F062FE002840F0B5824046A9
:1044A000FDF7B0FCDDE90223FDF712FD9A4B002277
:1044B000FDF75CFB079B0646A1F15077002B00F04F
:1044C0006881059BDDF81CC013930A9B002B00F04C
:1044D00026828E4B002003EBCC0353E902238F4945
:1044E000CDF850C0FDF71EFE32463B46FDF73CFBC3
:1044F000DDE90267CDE9100139463046FDF7FAFEE5
:104500000546FDF77FFC02460B4630463946FDF76F
:104510002BFBDDE9102330355FFA85F8089D064650
:1045200085F800800F46013501F018FE002840F0A4
:10453000B98232463B4600207649FDF715FB02461C
:104540000B46DDE9100101F027FE002840F0B382A0
:10455000DDF850C0BCF1010F40F33A81089BCDF863
:1045600050A0CDF808B003EB0C09DDE910ABA04674
:104570000FE032463B4600206649FDF7F5FA524609
:104580005B4601F0EBFD002840F090824D4500F0C5
:104590001A81504659460022614BFDF799FC0022D2
:1045A0005F4B82468B4630463946FDF791FC0F46FD
:1045B0000646FDF79FFE0446FDF724FC02460B4627
:1045C00030463946FDF7D0FA3034E4B205F8014BF5
:1045D00052465B4606460F4601F0C0FD0028C8D093
:1045E000139BDDF808B0444605932EE500230A939B
:1045F000239B059A13440D930133002B079340F33B
:104600000A81079E3746EAE600230A93DFE6079B06
:10461000002B3FF76AAC40F0668240460022414BD7
:104620004946FDF755FCDDE9022301F0ABFDDDF85D
:104630001C804646002800F08B80239B089DDB43AE
:1046400005934146204600F097FD002E7FF427AEEB
:10465000FBE45946204600F0D3FE834652E5029B18
:10466000002B7FF461AD039BC3F31303002B7FF496
:104670008FAD039B23F000473F0D3F05002F00F057
:104680001E82069B0AF1010A013306934FF00109CD
:1046900080E5129A002A00F0A98103F23343099FB2
:1046A000069DFAE400F072FD5746064681462CE668
:1046B00001462046CDF808C000F05EFD0122DDF87D
:1046C00008C04FE65846414600F042FF0028BFF6BA
:1046D0008CAD059F5946002320460A22013F0597CD
:1046E00000F054FD0A9B8346002B7FF4EBAD0D9B3D
:1046F000002B40F3FC8107937EE50898FFF708BB89
:10470000029B002B7FF444ADADE700BF5869000069
:10471000306A00000000F03F00001C400000E03F55
:104720000000244000001440229B022B7FF761AD63
:10473000079B002B81D141460522204600F026FD33
:1047400080465846414600F003FF00287FF775AFCA
:10475000059A08993123013205920B704D1C70E7C0
:10476000059A312301320592089A137087E5DDF826
:1047700008B0069C69E44046FDF744FBDDE90223EE
:10478000FDF7A6FB0022BE4BFDF7F0F90646A1F1AE
:104790005077DDE902010022BA4BFDF7E5F9324618
:1047A0003B46CDE9020101F0F7FC8046002840F0CD
:1047B000B280DDE90201324607F1004301F0CEFC90
:1047C00030B1464639E74446DDF850A0DDF808B080
:1047D000DDE90E23CDE90223FFF776BB5946099A9E
:1047E000204600F00DFE83468CE4099B0B9AFB1AD1
:1047F0001A4409970B92002749E4DDE90E234FF094
:104800000208CDE9022324E6012623960D96079699
:1048100000216164F2E51E46FAE7002A15DD5946DB
:1048200001222046CDF808C000F03AFE41468346FA
:1048300000F08EFE0028DDF808C040F34D81BCF189
:10484000390F00F009810CF1010CB24687F800C065
:104850007D1C4E4613E504D11CF0010F01D0FEE48F
:10486000154615F8013C6A1E302BF9D007E5059B6B
:104870005D42002D00F0C180DDE90E01824B05F0A4
:104880000F0203EBC203D3E90023FDF721FB2D1137
:10489000CDE9020100F030817C4E4FF00208EB07B9
:1048A00005D5D6E90023FDF713FB08F101086D10CB
:1048B00006F10806F3D1CDE90201E5E5059A3023BA
:1048C00001320592089A137031231370FFF7BDBBB4
:1048D0007168204600F028FC0546336906F10C019A
:1048E0009A1C92000C30FDF7A5FD204629460122B6
:1048F00000F0D6FD8146FEE4BCF1390F00F0AC803B
:104900000CF1010CB24687F800C07D1C4E46B6E49F
:10491000B2464E4693E44FF00008464618E75A491F
:104920000CF1FF3301EBC3013246D1E900011493CE
:104930003B46CDF854C0FDF7CBFADDE90267CDE97F
:10494000100139463046FDF7D5FC0546FDF75AFA09
:1049500002460B4630463946FDF706F9DDF854C0ED
:10496000089A3035BCF1010F157006460F4602F16A
:10497000010523D0089BCDF808A063445E469A4603
:10498000AB460022424BFDF7A3FA89468046FDF76D
:10499000B1FC0746FDF736FA303702460B46404673
:1049A0004946FDF7E1F80BF8017BD345E9D1B34661
:1049B0000F460646149BDDF808A01D440022354B27
:1049C000DDE91001FDF7D2F832463B4601F0C6FBA7
:1049D000002848D0139B059315F8018CFFF723BBE3
:1049E000069B079A9D1A0023FFF757BB169B099F4A
:1049F000C3F13603069DFFF750BBDDE90E234FF0F0
:104A00000208CDE902233FE5079B002B3FF4B3AE3C
:104A10000D9D002D7FF7DCAEDDE9020100221C4B6D
:104A2000FDF756FA06460F4608F10100CDE9026788
:104A3000FDF7E8F902460B4630463946FDF748FADD
:104A40000F4B0022FDF792F8059B0646013B13939E
:104A5000A1F15077AC4638E53922B2463A704E465D
:104A60007D1CFFF7FEBBDDE9102300200949FDF79F
:104A70007BF832463B4601F08FFB70B9A8E600BFD9
:104A800000001C400000144058690000306A00001B
:104A9000000024400000E03F154615F8013C6A1E66
:104AA000302BF9D0139B0593FFF7CFBA4346A046AE
:104AB0001C46DDF808B0139B0593FFF7B4BAB9465E
:104AC000FFF768BBBCF1390FC6D0BAF1000F7FF712
:104AD000BCAE05F1310CB8E67FF4B7AE1CF0010FA7
:104AE0003FF4B3AEABE64FF000084646A5E5229B87
:104AF000022B04DC0D9BFEE54FF00208C4E40D9B85
:104B0000079315E6229B022BF9DC0D9BFFF7E5BB13
:104B1000002565642946204600F006FB4FF0FF3370
:104B200007930D9301230890239520640A93FFF7C0
:104B3000CBB93FF444ABC0F13C00FFF73BBB0123D2
:104B40000A9355E50125FFF789B900BF38B5084B31
:104B5000084DED1AAC1018BFED1805D0013C55F802
:104B6000043D9847002CF9D1BDE8384001F07ABFE8
:104B7000786A00007C6A0000004870475C040020EE
:104B80002DE9F04F01F10B05162D83B0064627D90C
:104B900035F0070500F1B680A94200F2B38000F0BD
:104BA000BFFAB5F5FC7F22D2BC4FE80807EBC00383
:104BB000DC689C4200F0BC816368E16823F0030379
:104BC00023445A68A56842F00102E96030468D60CE
:104BD0005A6000F0A7FA0834204603B0BDE8F08F11
:104BE000102900F28F8000F09BFA1025DCE7680A9C
:104BF00000F08F80042800F24781A8093830410076
:104C0000A64F07EB8101CC68A14206D10CE0002A37
:104C100080F28280E468A14206D0636823F0030337
:104C20005A1B0F2AF3DD013801309C493C6901F120
:104C3000080E744500F07181636823F003035A1B6A
:104C40000F2A00F35781002AC1F814E0C1F810E0E0
:104C500066DAB3F5007F80F02D81DB0801EBC30835
:104C60004FEAA30C4A68012303FA0CF3D8F808C0F2
:104C70001343C4F808C0C4F80C804B60C8F808405F
:104C8000CCF80C408210012494409C4255D8234219
:104C900006D120F003006400234200F10400FAD0A2
:104CA00007EBC008C4468146DCF80C309C4507D1B0
:104CB00035E1002980F24581DB689C4500F02F81B9
:104CC0005A6822F00302511B0F29F2DD1C46DA68F4
:104CD00054F808CF45F0010941F001081D44C3F81C
:104CE00004903046CCF80C20C2F808C07D613D61CC
:104CF000C5F80CE0C5F808E0C5F80480695000F07C
:104D000011FA69E7002420460C23336003B0BDE8A4
:104D1000F08F7E213F2073E723445A68E16851E712
:104D200023445A68304642F001025A60083400F0C9
:104D3000F9F9204603B0BDE8F08FBC68636823F042
:104D40000308454504D8C5EB08030F2B00F38C80FE
:104D5000534BDFF85CA11A68DAF800302A440133BB
:104D600004EB080B00F0518102F580520F3222F45F
:104D70007F6222F00F0211463046019200F0FEFCE5
:104D8000B0F1FF3F8146019A00F04881834500F26F
:104D9000EF80444BCB4519681144196000F0438102
:104DA000DAF80000DFF808E101301BBFCBEB090B9C
:104DB0005944CEF80090196019F0070100F00881FD
:104DC000C1F10800C1F58051814408314A44C2F361
:104DD0000B02C2EB010A51463046019300F0CEFCB3
:104DE000431C019B00F02D81C9EB0002524442F0AC
:104DF00001021968BC425144C7F808901960C9F80B
:104E00000420DFF8A0A016D0B8F10F0F40F2EF8019
:104E10006268A8F10C0323F0070302F00102E01816
:104E20004FF0050E1A430F2B6260C0F804E0C0F883
:104E300008E000F20A811C4BBC681A68914288BFE6
:104E400019601A4B1A689142626888BF196022F093
:104E500003029542A2EB050301D80F2B04DC304678
:104E600000F060F90024B7E645F0010243F00103C9
:104E7000254462603046BD6008346B6000F052F932
:104E8000204603B0BDE8F08F142869D9542800F2F9
:104E90009880280B6E304100B2E600BF94040020D9
:104EA000280900202C0900202409002020090020C6
:104EB000A00800205A0A042A55D9142A00F2A78013
:104EC0005B324FEA420C07EB8C0CDCF80810DFF881
:104ED000B88161457FD04A6822F00302934202D232
:104EE00089688C45F7D1CA687B68E260A1609460EC
:104EF000CC60C7E645F0010742F001032544676036
:104F000030464D610D61C5F80CE0C5F808E06B60F6
:104F1000AA50083400F006F95EE64B68B2E609F1E3
:104F2000010919F0030F0CF1080C7FF4BDAE2CE061
:104F300004F108036469A34208BF02303FF475AE70
:104F40003AE61C461A445168DB6854F8085F41F0A1
:104F5000010151603046EB609D6000F0E3F83BE6F4
:104F60005B3041004CE69A0938324FEA420CAAE71E
:104F7000BC42454B3FF40DAF9C68626822F00302CF
:104F800067E7D8F8008098457CD110F0030FA8F1AE
:104F9000080300F1FF30F4D17B6823EA04037B604F
:104FA00064009C423FF6C9AE002C3FF4C6AE2342DB
:104FB00048467FF475AE6400234200F10400FAD045
:104FC0006EE6B0F5AA7F18D8E80B7730410017E6F7
:104FD0004FF48051FAE6D8F8043092104FF0010CEB
:104FE0000CFA02F21343C8F804300A467DE70123A5
:104FF000C9F804304C4600222BE740F25453984243
:105000001CD8A80C7C304100FAE51032B3E6542AD3
:1050100023D81A0B6E324FEA420C54E7BC68626820
:1050200022F0030215E7CBF30B0000287FF4B8AEA3
:105030004244BB6842F001025A60FCE6FC217E203B
:10504000DEE501224FF0000AD3E604F10801304604
:1050500000F0F8FCDAF80010EDE6B2F5AA7F04D80B
:10506000DA0B77324FEA420C2DE740F254518A4274
:1050700004D89A0C7C324FEA420C24E74FF0FC0C27
:105080007E2220E77B688BE794040020830770B4BE
:10509000C9B240D0541E002A3FD003788B4218BFBB
:1050A000431C05D11CE0ECB10278013C8A4217D0C8
:1050B00013F0030F184603F10103F4D1032C14D8A5
:1050C00084B103788B420BD00519431C02E00278AF
:1050D0008A4205D0AB42184603F10103F7D1002004
:1050E00070BC7047204670BC7047024641EA0126FA
:1050F00046EA0646136810467340A3F1013525EAD7
:10510000030313F0803F02F10402D9D1043C032CC5
:105110001046EFD8D4E71446D0E71046E0E700BFCA
:10512000704700BF704700BFC26C70B505460C46A3
:1051300052B152F824308BB1196842F82410002281
:1051400018461A61DA6070BD2122042100F0FCFBD0
:10515000E86402460028ECD1002070BD012101FA6C
:1051600004F6721D2846920000F0EEFB034600286C
:10517000F2D044608660E2E731B1C36C4A6853F80C
:105180002200086043F82210704700BFF0B50C46BB
:1051900005460E6983B001F1140E0027DEF80010F9
:1051A000013788B2090C02FB003302FB01F198B20F
:1051B00001EB134300EB0341BE424EF8041B4FEAE0
:1051C0001343EBDC3BB1A268964207DA04EB86029C
:1051D000013653612661204603B0F0BD6168284660
:1051E00001310193FFF7A0FF0746226904F10C018A
:1051F000023292000C30FDF71DF9EA6C6168019BE8
:1052000052F82100206042F821403C46DEE700BF12
:10521000030C1B04B3B90004102310F07F4F04BF2C
:105220000002083310F0704F04BF0001043310F087
:10523000404F04BF80000233002807DB420003D444
:10524000202070470023E8E7581C70471846704735
:10525000036813F0070207D0D90720D49A0720D497
:105260009B0803600220704799B209B91B0C1022F9
:1052700013F0FF0F04BF1B0A0832190704BF1B09F4
:105280000432990704BF9B080232D90704D45B0893
:1052900001D1202070470132036010467047002082
:1052A00070475B0803600120704700BF10B50C46D3
:1052B0000121FFF739FF01224461026110BD00BFE7
:1052C0002DE9F04F0E69156985B0AE420C46914646
:1052D000C0F292802B4635461E46A36805EB0608B1
:1052E00061689845C8BF0131FFF71EFF00F1140A3D
:1052F0000AEB880BDA45019005D25346002143F8AA
:10530000041B9B45FBD809F1140909EB860304F142
:105310001402994502EB850C59D2CDF808B0CDF8AE
:105320000C809B46904659F8047B1FFA87FEBEF11D
:10533000000F1FD047465646002100E00646304683
:1053400057F8045B3468ABB2A2B20EFB03222D0CFB
:10535000240C0EFB0544531804EB13419AB242EAA5
:105360000142BC454FEA114140F8042BE6D8716078
:1053700059F8047C3F0C22D0DAF800300022554660
:105380001E464046964600E025462C460288360CCE
:1053900007FB026699B206EB0E0241EA024344F8AB
:1053A000043B50F8041B6E68090CB3B207FB0131D3
:1053B000844501EB12434FEA134EE5D86B60CB45B1
:1053C0000AF1040AAFD8DDF808B0DDF80C80B8F1B6
:1053D000000F0BDD5BF8043CABF1040B1BB105E0E7
:1053E0005BF8043D13B9B8F10108F9D10198C0F890
:1053F000108005B0BDE8F08F144689466DE700BF08
:1054000012F003032DE9F041144607460E462DD154
:10541000A4101CD0BD6C95B3E3074FF0000806D470
:10542000641014D02868A8B10546E307F8D53846BB
:1054300031462A46FFF744FFB6B17268FB6C641030
:1054400053F82210316043F822600646EAD1304614
:10545000BDE8F08129462A463846FFF731FF28602B
:10546000C0F800800546E0E70646D9E70B4A013B55
:1054700052F823200023FFF789FE0646C8E70121E2
:105480003846FFF751FE40F27121012200234161AD
:1054900002610546B8640360BEE700BF206A0000F1
:1054A0002DE9F0470F694FEA62198B684F447D1C64
:1054B0009D420E4614468046496804DD5B009D42CD
:1054C00001F10101FADC4046FFF72EFEB9F1000FB1
:1054D00000F1140109DD00239E460A4601334B45C5
:1054E00042F804EBFAD101EB8301326906F11403AF
:1054F00003EB820E14F01F0222D0C2F120094FF0FC
:10550000000A1C688C4694404AEA040441F8044BA3
:1055100053F8044B9E4524FA09FAF2D8CCF804A0BB
:10552000BAF1000F00D0BD1CD8F84C307268013DB4
:1055300053F822100561316043F82260BDE8F0871E
:10554000043953F8042B9E4541F8042FF9D8EBE7B2
:1055500002690B69D21A13D19B001430143119441B
:1055600010B4034401E098420CD253F8044D51F8B2
:10557000042D9442F7D009D301205DF8044B704705
:105580001046704700205DF8044B70474FF0FF3025
:105590005DF8044B704700BF2DE9F0470C46054607
:1055A000114620469146FFF7D3FF061E5DD056DB1D
:1055B0004FF0000A28466168FFF7B6FD09F11403B1
:1055C00080461E462769D9F8102004F1140E75464E
:1055D000C0F80CA000F114040EEB870E03EB820C54
:1055E0004FF0000A55F8042B56F8041B90B200EB5C
:1055F0000A0388B2090C1B1AC1EB124202EB2342C8
:105600009BB243EA0243B44544F8043B4FEA224AC2
:10561000A946E7D8AE45264615D959F8040B83B2FA
:105620005344000C00EB23419BB243EA0143CE45B7
:1056300044F8043B4FEA214AEFD8ED43754425F086
:10564000030404343444043C23B954F8043D013FBA
:10565000002BFAD04046C8F81070BDE8F08723460A
:105660004FF0010A4C469946A4E728463146FFF719
:105670005BFD012346610361BDE8F087F0B50121C0
:1056800083B01C46C3F30A551646FFF74DFDC4F31D
:10569000130407460DB144F48014019406B302A824
:1056A00040F8086DFFF7D4FD002830D19DE80C00CC
:1056B0007A61002B14BF02240124BB613C61D5B97F
:1056C000089A07EB8403A0F2324010601869FFF7D4
:1056D0009FFD099BC0EB44101860384603B0F0BD35
:1056E00001A8FFF7B5FD019B0122144620303A6165
:1056F0007B61002DE4D0A5F23343089A0344136084
:10570000099BC0F135001860384603B0F0BD019B1D
:10571000C0F12001009A03FA01F10A43C34001934A
:105720007A61C6E710B431F0004408D0114BA1F5FE
:1057300080129A4208D804205DF8044B704718B9CB
:1057400002205DF8044B704701F1FF41094B01F560
:10575000E0019942EFD9B4F5801F01D20320EBE7B5
:10576000054B9C4201D00020E6E7B0FA80F04009EA
:10577000E2E700BFFFFFDF7F0000F07F38B5074C96
:105780000023054608462360FBF7D6FF431C00D0E4
:1057900038BD2368002BFBD02B6038BDDC0A00200D
:1057A0002DE9F04F936883B09146D2F80080002B2A
:1057B00072D04FF0000B0D465C4607468B680868B8
:1057C000002C45D09C421E469A4648D3AB8913F420
:1057D000906F2DD06E69296906EB4606C1EB000A71
:1057E00006EBD676601C76105044864232463CBFAB
:1057F000064632465B0535D511463846FFF7C0F9F7
:10580000002839D0524629690190FCF713FEAA8975
:10581000019B22F4906242F08002AA81CAEB060248
:1058200003EB0A006E61A24626462B612860AA603F
:105830005246594600F0DEF9D9F80820AB682868CE
:105840009B1B5044141BAB602860C9F808401CB374
:10585000D8F800B0D8F8044008F10808B0E72646A8
:10586000A246E5E7384600F029FA03460028D5D1DC
:105870003846296900F0E6F80C233B60AB8900222A
:1058800043F040034FF0FF30AB81C9F80820C9F85E
:10589000042003B0BDE8F08F0020C9F8040003B075
:1058A000BDE8F08F2DE9F047254C0646256888466F
:1058B000D5F8484192469946C4B360681F2817DC62
:1058C000411C76B104EB8003C3F888A0D4F888515A
:1058D000012282401543022EC4F88851C3F8089172
:1058E0001ED0831C6160002044F82380BDE8F0874F
:1058F000144B03B34FF4C870AFF300800446D0B12B
:10590000D5F84831002784E888003846C5F8484172
:105910000121C4F88871C4F88C71002EE1D0D1E760
:10592000D4F88C311A43C4F88C21DAE705F5A67453
:10593000C5F84841C1E74FF0FF30BDE8F08700BF30
:10594000D46800000000000010B502FB01F1FFF771
:1059500017F9044668B150F8042C22F00302043A07
:10596000242A18D8132A06D8034600221A605A603F
:105970009A60204610BD00231B2A036043600FD9A4
:10598000242A8360C36005BF0361436100F11003F3
:1059900000F11803E9E70021FCF7C2FD204610BD25
:1059A00000F10803E1E700BFF8B50C46224F0646B8
:1059B000FFF7B6FBBB685D6825F00305291B01F600
:1059C000EF7121F47F6121F00F01A1F58054B4F54E
:1059D000805F07DB30460021FFF7D0FEBB682B4419
:1059E000984204D03046FFF79DFB0020F8BD3046BA
:1059F0006142FFF7C3FE01300DD0104BBA68196841
:105A00002D1B45F001053046091B55601960FFF755
:105A100089FB0120F8BD30460021FFF7AFFEBA68D0
:105A2000831A0F2BDEDD064C0449246843F0010382
:105A3000001B53600860D5E7940400202C09002067
:105A4000A008002000294ED02DE9F0410C468046E8
:105A5000FFF766FB54F8047C6249A4F1080527F0BF
:105A60000102AB188E6858689E4220F003005AD09D
:105A7000FE0758600BD454F8087C01F1080EED1BAA
:105A8000AC683A44744567D0EF68E760BC601C18A6
:105A90006468E4070CD4544F9C680244BC427CD038
:105AA000D86842F00103E06084606B60AA5003E0B4
:105AB00042F001036B60AA50B2F5007F14D2D20805
:105AC00001EBC20301244868921004FA02F29C68B8
:105AD0001043AC60EB6048609D60E5604046BDE807
